{"contracts/Sungrid.sol":{"SunGridMarketplace":{"abi":[{"inputs":[{"internalType":"address","name":"_energyTokenAddress","type":"address"}],"stateMutability":"nonpayable","type":"constructor"},{"anonymous":false,"inputs":[{"indexed":true,"internalType":"uint256","name":"listingId","type":"uint256"}],"name":"ListingCancelled","type":"event"},{"anonymous":false,"inputs":[{"indexed":true,"internalType":"uint256","name":"listingId","type":"uint256"},{"indexed":true,"internalType":"address","name":"seller","type":"address"},{"indexed":false,"internalType":"uint256","name":"tokenAmount","type":"uint256"},{"indexed":false,"internalType":"uint256","name":"pricePerKwh","type":"uint256"}],"name":"ListingCreated","type":"event"},{"anonymous":false,"inputs":[{"indexed":true,"internalType":"address","name":"previousOwner","type":"address"},{"indexed":true,"internalType":"address","name":"newOwner","type":"address"}],"name":"OwnershipTransferred","type":"event"},{"anonymous":false,"inputs":[{"indexed":false,"internalType":"uint256","name":"newFee","type":"uint256"}],"name":"PlatformFeeUpdated","type":"event"},{"anonymous":false,"inputs":[{"indexed":true,"internalType":"uint256","name":"tradeId","type":"uint256"},{"indexed":true,"internalType":"uint256","name":"listingId","type":"uint256"},{"indexed":true,"internalType":"address","name":"buyer","type":"address"},{"indexed":false,"internalType":"address","name":"seller","type":"address"},{"indexed":false,"internalType":"uint256","name":"amount","type":"uint256"},{"indexed":false,"internalType":"uint256","name":"priceInHBAR","type":"uint256"}],"name":"TradeExecuted","type":"event"},{"inputs":[{"internalType":"uint256","name":"listingId","type":"uint256"},{"internalType":"bytes32","name":"hcsRecordId","type":"bytes32"}],"name":"buyEnergy","outputs":[{"internalType":"uint256","name":"","type":"uint256"}],"stateMutability":"payable","type":"function"},{"inputs":[{"internalType":"uint256","name":"listingId","type":"uint256"}],"name":"calculatePrice","outputs":[{"internalType":"uint256","name":"totalPrice","type":"uint256"},{"internalType":"uint256","name":"platformFee","type":"uint256"},{"internalType":"uint256","name":"sellerAmount","type":"uint256"}],"stateMutability":"view","type":"function"},{"inputs":[{"internalType":"uint256","name":"listingId","type":"uint256"}],"name":"cancelListing","outputs":[],"stateMutability":"nonpayable","type":"function"},{"inputs":[{"internalType":"uint256","name":"tokenAmount","type":"uint256"},{"internalType":"uint256","name":"pricePerKwh","type":"uint256"}],"name":"createListing","outputs":[{"internalType":"uint256","name":"","type":"uint256"}],"stateMutability":"nonpayable","type":"function"},{"inputs":[],"name":"energyToken","outputs":[{"internalType":"contract SunGridEnergyToken","name":"","type":"address"}],"stateMutability":"view","type":"function"},{"inputs":[{"internalType":"uint256","name":"listingId","type":"uint256"}],"name":"getActiveListing","outputs":[{"components":[{"internalType":"uint256","name":"listingId","type":"uint256"},{"internalType":"address","name":"seller","type":"address"},{"internalType":"uint256","name":"tokenAmount","type":"uint256"},{"internalType":"uint256","name":"pricePerKwh","type":"uint256"},{"internalType":"enum SunGridMarketplace.ListingStatus","name":"status","type":"uint8"},{"internalType":"uint256","name":"createdAt","type":"uint256"}],"internalType":"struct SunGridMarketplace.Listing","name":"","type":"tuple"}],"stateMutability":"view","type":"function"},{"inputs":[{"internalType":"uint256","name":"tradeId","type":"uint256"}],"name":"getTrade","outputs":[{"components":[{"internalType":"uint256","name":"tradeId","type":"uint256"},{"internalType":"uint256","name":"listingId","type":"uint256"},{"internalType":"address","name":"buyer","type":"address"},{"internalType":"address","name":"seller","type":"address"},{"internalType":"uint256","name":"tokenAmount","type":"uint256"},{"internalType":"uint256","name":"totalPrice","type":"uint256"},{"internalType":"uint256","name":"timestamp","type":"uint256"},{"internalType":"bytes32","name":"hcsRecordId","type":"bytes32"}],"internalType":"struct SunGridMarketplace.Trade","name":"","type":"tuple"}],"stateMutability":"view","type":"function"},{"inputs":[],"name":"listingCounter","outputs":[{"internalType":"uint256","name":"","type":"uint256"}],"stateMutability":"view","type":"function"},{"inputs":[{"internalType":"uint256","name":"","type":"uint256"}],"name":"listings","outputs":[{"internalType":"uint256","name":"listingId","type":"uint256"},{"internalType":"address","name":"seller","type":"address"},{"internalType":"uint256","name":"tokenAmount","type":"uint256"},{"internalType":"uint256","name":"pricePerKwh","type":"uint256"},{"internalType":"enum SunGridMarketplace.ListingStatus","name":"status","type":"uint8"},{"internalType":"uint256","name":"createdAt","type":"uint256"}],"stateMutability":"view","type":"function"},{"inputs":[],"name":"owner","outputs":[{"internalType":"address","name":"","type":"address"}],"stateMutability":"view","type":"function"},{"inputs":[],"name":"pause","outputs":[],"stateMutability":"nonpayable","type":"function"},{"inputs":[],"name":"paused","outputs":[{"internalType":"bool","name":"","type":"bool"}],"stateMutability":"view","type":"function"},{"inputs":[],"name":"platformFeePercent","outputs":[{"internalType":"uint256","name":"","type":"uint256"}],"stateMutability":"view","type":"function"},{"inputs":[],"name":"tradeCounter","outputs":[{"internalType":"uint256","name":"","type":"uint256"}],"stateMutability":"view","type":"function"},{"inputs":[{"internalType":"uint256","name":"","type":"uint256"}],"name":"trades","outputs":[{"internalType":"uint256","name":"tradeId","type":"uint256"},{"internalType":"uint256","name":"listingId","type":"uint256"},{"internalType":"address","name":"buyer","type":"address"},{"internalType":"address","name":"seller","type":"address"},{"internalType":"uint256","name":"tokenAmount","type":"uint256"},{"internalType":"uint256","name":"totalPrice","type":"uint256"},{"internalType":"uint256","name":"timestamp","type":"uint256"},{"internalType":"bytes32","name":"hcsRecordId","type":"bytes32"}],"stateMutability":"view","type":"function"},{"inputs":[{"internalType":"address","name":"newOwner","type":"address"}],"name":"transferOwnership","outputs":[],"stateMutability":"nonpayable","type":"function"},{"inputs":[],"name":"unpause","outputs":[],"stateMutability":"nonpayable","type":"function"},{"inputs":[{"internalType":"uint256","name":"newFeePercent","type":"uint256"}],"name":"updatePlatformFee","outputs":[],"stateMutability":"nonpayable","type":"function"},{"inputs":[],"name":"withdrawFees","outputs":[],"stateMutability":"nonpayable","type":"function"}],"evm":{"bytecode":{"linkReferences":{},"object":"6080346100ad57601f6112b838819003918201601f19168301916001600160401b038311848410176100b2578084926020946040528339810103126100ad57516001600160a01b038116908190036100ad57601960035560018060a01b0319908160005416176000553390600154161760015560016007556040513360007f8be0079c531659141344cd1fd0a4f28419497f9722a3daafe3b4186f6b6457e08180a36111ef90816100c98239f35b600080fd5b634e487b7160e01b600052604160045260246000fdfe608060408181526004908136101561001657600080fd5b60009260e08435811c9182631030f05f14610ea6575081631299d7f014610ae55781631e6c598e14610a665781632db25e051461096857508063305a67a8146107c55780633f4ba83a14610790578063476343ee146106d65780634ec7fb81146106ae5780635c975abb14610687578063660d15b5146106685780636c2c9c7d146106495780638456cb591461060b5780638c639a85146105ec5780638da5cb5b146105bf578063a79123a914610368578063aa0b5988146102d2578063ae1042651461021b578063de74e57b146101ad5763f2fde38b146100f757600080fd5b346101a95760203660031901126101a9576001600160a01b03823581811693908490036101a55760015491821692610130843314610fa2565b841561016e5750506001600160a01b03191682176001557f8be0079c531659141344cd1fd0a4f28419497f9722a3daafe3b4186f6b6457e08380a380f35b906020606492519162461bcd60e51b8352820152601160248201527024b73b30b634b2103732bb9037bbb732b960791b6044820152fd5b8480fd5b8280fd5b50346101a95760203660031901126101a9576102148160c09484358152846020522080549360018060a01b0360018301541693600283015490600560ff60038601549486015416940154958151978852602088015286015260608501526080840190610f7f565b60a0820152f35b5090346101a95760203660031901126101a95780670de0b6b3a7640000836060956102a694358152836020522084516102538161101c565b8154815260018060a01b03600183015416602082015260a0600560028401549388840194855261029760ff6003830154988c8701998a5283015416608086016110cf565b01549101525104905190611159565b906127106102b660035484611159565b04906102c2828461116c565b9181519384526020840152820152f35b50346101a95760203660031901126101a9578135916102fc60018060a01b03600154163314610fa2565b6101f483116103375750816020917f45610d581145924dd7090a5017e5f2b1d6f42213bb2e95707ff86846bbfcb1ca9360035551908152a180f35b6020606492519162461bcd60e51b8352820152600c60248201526b08ccaca40e8dede40d0d2ced60a31b6044820152fd5b50346101a957806003193601126101a9578135602480359361039260ff60015460a01c1615610fdb565b821561057e57841561054457859060018060a01b0392838354168651906323b872dd60e01b8252338483015230838301528660448301528160648160209c8d945af190811561053a57849161050d575b50156104d3579087916103f66002546110aa565b93846002558751956104078761101c565b8587528487013381528988019089825260608901928c84528660808b0198868a5260a08c019a428c528752528b852099518a5560018a019151166bffffffffffffffffffffffff60a01b82541617905551600288015551600387015582860193519260038410156104c357505050906005929160ff801983541691161790555191015560025492825191825284820152827f12dc294b81a709d694b1337a350a12a00076c19a77a25aab67a5f0c07e0f164d833393a351908152f35b634e487b7160e01b825260219052fd5b855162461bcd60e51b815291820188905260159082015274151bdad95b881d1c985b9cd9995c8819985a5b1959605a1b6044820152606490fd5b61052d9150893d8b11610533575b610525818361106b565b81019061108d565b386103e2565b503d61051b565b87513d86823e3d90fd5b6016606492602086519362461bcd60e51b8552840152820152755072696365206d75737420626520706f73697469766560501b6044820152fd5b6017606492602086519362461bcd60e51b85528401528201527f416d6f756e74206d75737420626520706f7369746976650000000000000000006044820152fd5b8382346105e857816003193601126105e85760015490516001600160a01b039091168152602090f35b5080fd5b8382346105e857816003193601126105e8576020906003549051908152f35b8334610646578060031936011261064657600154610633336001600160a01b03831614610fa2565b60ff60a01b1916600160a01b1760015580f35b80fd5b8382346105e857816003193601126105e8576020906002549051908152f35b8382346105e857816003193601126105e8576020906006549051908152f35b8382346105e857816003193601126105e85760209060ff60015460a01c1690519015158152f35b8382346105e857816003193601126105e857905490516001600160a01b039091168152602090f35b50346101a957826003193601126101a9576001546001600160a01b03166106fe338214610fa2565b47908115610757578480809381935af1610716611179565b5015610720578280f35b906020606492519162461bcd60e51b8352820152601160248201527015da5d1a191c985dd85b0819985a5b1959607a1b6044820152fd5b825162461bcd60e51b815260208186015260136024820152724e6f206665657320746f20776974686472617760681b6044820152606490fd5b83346106465780600319360112610646576001546107b8336001600160a01b03831614610fa2565b60ff60a01b191660015580f35b5090346101a957602080600319360112610964578135926107eb600260075414156110db565b600260075583855282825280852060018101546001600160a01b03908116919033830361093057858201805460ff8116600381101561091d57928794926002809361083a610878999715611118565b60ff19161790558a54169101549189865180968195829463a9059cbb60e01b84528c840160209093929193604081019460018060a01b031681520152565b03925af19081156109135786916108f6575b50156108bf575050507f411aee90354c51b1b04cd563fcab2617142a9d50da19232d888547c8a1b7fd8a8280a2600160075580f35b5162461bcd60e51b8152918201526013602482015272151bdad95b881c995d1d5c9b8819985a5b1959606a1b604482015260649150fd5b61090d9150833d851161053357610525818361106b565b3861088a565b82513d88823e3d90fd5b634e487b7160e01b8b526021895260248bfd5b835162461bcd60e51b8152808701869052600e60248201526d2737ba103a34329039b2b63632b960911b6044820152606490fd5b8380fd5b91929050346109645760203660031901126109645782846101009584835161098f8161104e565b82815282602082015282858201528260608201528260808201528260a08201528260c08201520152823581526005602052208351916109cd8361104e565b8154948584526001830154916020850192835260018060a01b0390816002860154169280870193845282806003880154169260608901938452870154946080890195865260058801549660a08a019788528a600760068b01549a60c08d019b8c5201549a01998a5283519b8c525160208c0152511690890152511660608701525160808601525160a08501525160c08401525190820152f35b84939150346109645760203660031901126109645782610100948335815260056020522080549360018201549360018060a01b03908160028501541691600385015416908401549160058501549360076006870154960154978151998a5260208a01528801526060870152608086015260a085015260c0840152820152f35b82859392506003193601126101a9578335610b05600260075414156110db565b6002600755610b1c60ff60015460a01c1615610fdb565b808452602094808652838520928184019160ff8354166003811015610e9357610b459015611118565b600185019660018060a01b03928389541694853314610e5757610b7d60028901986003670de0b6b3a76400008b540491015490611159565b95610b97612710610b906003548a611159565b048861116c565b90873410610e14578480809381935af1610baf611179565b5015610dd157853411610d7b575b825488548a5163a9059cbb60e01b8152338782019081526020810192909252918d91839189169082908890829060400103925af1908115610d71578491610d54575b5015610d1157856005946007948a8d958f958e8d91600160ff198254161790558b610c2b6006546110aa565b998a600655541693549481519b8c99610c438b61104e565b8b8b52808b01948552838b019533875260608c0197885260808c0198895260a08c019a8b5260c08c019b428d52019b6024358d528352522099518a555160018a01558960028a01915116906bffffffffffffffffffffffff60a01b91828254161790558960038a0192511690825416179055519086015551600585015551600684015551910155600654955416925484519384528684015283830152837f15e0d41a04dd94271eba462c33812ee3d36a08eddcf7e4cff32f9ef872dea02e60603394a4600160075551908152f35b885162461bcd60e51b81528085018c9052601e60248201527f546f6b656e207472616e7366657220746f206275796572206661696c656400006044820152606490fd5b610d6b91508c8d3d1061053357610525818361106b565b8c610bff565b8a513d86823e3d90fd5b82808080610d898a3461116c565b335af1610d94611179565b50610bbd57885162461bcd60e51b81528085018c9052601260248201527112109054881c99599d5b990819985a5b195960721b6044820152606490fd5b885162461bcd60e51b81528085018c9052601d60248201527f48424152207061796d656e7420746f2073656c6c6572206661696c65640000006044820152606490fd5b8a5162461bcd60e51b81528087018e9052601960248201527f496e73756666696369656e742048424152207061796d656e74000000000000006044820152606490fd5b885162461bcd60e51b81528085018c9052601660248201527543616e6e6f7420627579206f776e206c697374696e6760501b6044820152606490fd5b634e487b7160e01b885260218252602488fd5b9150503461096457602036600319011261096457818460c09560a084610ece610f779661101c565b82815282602082015282858201528260608201528260808201520152843581528460205220825193610eff8561101c565b8154855260018060a01b0393846001840154169460208701958652600284015490828801918252600560ff60038701549560608b019687528701541695610f4a60808b0197886110cf565b01549660a08901978852835198518952511660208801525190860152516060850152516080840190610f7f565b5160a0820152f35b906003821015610f8c5752565b634e487b7160e01b600052602160045260246000fd5b15610fa957565b60405162461bcd60e51b815260206004820152600a60248201526927b7363c9037bbb732b960b11b6044820152606490fd5b15610fe257565b60405162461bcd60e51b815260206004820152601260248201527110dbdb9d1c9858dd081a5cc81c185d5cd95960721b6044820152606490fd5b60c0810190811067ffffffffffffffff82111761103857604052565b634e487b7160e01b600052604160045260246000fd5b610100810190811067ffffffffffffffff82111761103857604052565b90601f8019910116810190811067ffffffffffffffff82111761103857604052565b908160209103126110a5575180151581036110a55790565b600080fd5b60001981146110b95760010190565b634e487b7160e01b600052601160045260246000fd5b6003821015610f8c5752565b156110e257565b60405162461bcd60e51b815260206004820152600e60248201526d1499595b9d1c985b9d0818d85b1b60921b6044820152606490fd5b1561111f57565b60405162461bcd60e51b81526020600482015260126024820152714c697374696e67206e6f742061637469766560701b6044820152606490fd5b818102929181159184041417156110b957565b919082039182116110b957565b3d156111b4573d9067ffffffffffffffff821161103857604051916111a8601f8201601f19166020018461106b565b82523d6000602084013e565b60609056fea264697066735822122018dbee68b1324af74649f5113804865bb5e06bfe005b34d58398e43561f533db64736f6c63430008140033","opcodes":"PUSH1 0x80 CALLVALUE PUSH2 0xAD JUMPI PUSH1 0x1F PUSH2 0x12B8 CODESIZE DUP2 SWAP1 SUB SWAP2 DUP3 ADD PUSH1 0x1F NOT AND DUP4 ADD SWAP2 PUSH1 0x1 PUSH1 0x1 PUSH1 0x40 SHL SUB DUP4 GT DUP5 DUP5 LT OR PUSH2 0xB2 JUMPI DUP1 DUP5 SWAP3 PUSH1 0x20 SWAP5 PUSH1 0x40 MSTORE DUP4 CODECOPY DUP2 ADD SUB SLT PUSH2 0xAD JUMPI MLOAD PUSH1 0x1 PUSH1 0x1 PUSH1 0xA0 SHL SUB DUP2 AND SWAP1 DUP2 SWAP1 SUB PUSH2 0xAD JUMPI PUSH1 0x19 PUSH1 0x3 SSTORE PUSH1 0x1 DUP1 PUSH1 0xA0 SHL SUB NOT SWAP1 DUP2 PUSH1 0x0 SLOAD AND OR PUSH1 0x0 SSTORE CALLER SWAP1 PUSH1 0x1 SLOAD AND OR PUSH1 0x1 SSTORE PUSH1 0x1 PUSH1 0x7 SSTORE PUSH1 0x40 MLOAD CALLER PUSH1 0x0 PUSH32 0x8BE0079C531659141344CD1FD0A4F28419497F9722A3DAAFE3B4186F6B6457E0 DUP2 DUP1 LOG3 PUSH2 0x11EF SWAP1 DUP2 PUSH2 0xC9 DUP3 CODECOPY RETURN JUMPDEST PUSH1 0x0 DUP1 REVERT JUMPDEST PUSH4 0x4E487B71 PUSH1 0xE0 SHL PUSH1 0x0 MSTORE PUSH1 0x41 PUSH1 0x4 MSTORE PUSH1 0x24 PUSH1 0x0 REVERT INVALID PUSH1 0x80 PUSH1 0x40 DUP2 DUP2 MSTORE PUSH1 0x4 SWAP1 DUP2 CALLDATASIZE LT ISZERO PUSH2 0x16 JUMPI PUSH1 0x0 DUP1 REVERT JUMPDEST PUSH1 0x0 SWAP3 PUSH1 0xE0 DUP5 CALLDATALOAD DUP2 SHR SWAP2 DUP3 PUSH4 0x1030F05F EQ PUSH2 0xEA6 JUMPI POP DUP2 PUSH4 0x1299D7F0 EQ PUSH2 0xAE5 JUMPI DUP2 PUSH4 0x1E6C598E EQ PUSH2 0xA66 JUMPI DUP2 PUSH4 0x2DB25E05 EQ PUSH2 0x968 JUMPI POP DUP1 PUSH4 0x305A67A8 EQ PUSH2 0x7C5 JUMPI DUP1 PUSH4 0x3F4BA83A EQ PUSH2 0x790 JUMPI DUP1 PUSH4 0x476343EE EQ PUSH2 0x6D6 JUMPI DUP1 PUSH4 0x4EC7FB81 EQ PUSH2 0x6AE JUMPI DUP1 PUSH4 0x5C975ABB EQ PUSH2 0x687 JUMPI DUP1 PUSH4 0x660D15B5 EQ PUSH2 0x668 JUMPI DUP1 PUSH4 0x6C2C9C7D EQ PUSH2 0x649 JUMPI DUP1 PUSH4 0x8456CB59 EQ PUSH2 0x60B JUMPI DUP1 PUSH4 0x8C639A85 EQ PUSH2 0x5EC JUMPI DUP1 PUSH4 0x8DA5CB5B EQ PUSH2 0x5BF JUMPI DUP1 PUSH4 0xA79123A9 EQ PUSH2 0x368 JUMPI DUP1 PUSH4 0xAA0B5988 EQ PUSH2 0x2D2 JUMPI DUP1 PUSH4 0xAE104265 EQ PUSH2 0x21B JUMPI DUP1 PUSH4 0xDE74E57B EQ PUSH2 0x1AD JUMPI PUSH4 0xF2FDE38B EQ PUSH2 0xF7 JUMPI PUSH1 0x0 DUP1 REVERT JUMPDEST CALLVALUE PUSH2 0x1A9 JUMPI PUSH1 0x20 CALLDATASIZE PUSH1 0x3 NOT ADD SLT PUSH2 0x1A9 JUMPI PUSH1 0x1 PUSH1 0x1 PUSH1 0xA0 SHL SUB DUP3 CALLDATALOAD DUP2 DUP2 AND SWAP4 SWAP1 DUP5 SWAP1 SUB PUSH2 0x1A5 JUMPI PUSH1 0x1 SLOAD SWAP2 DUP3 AND SWAP3 PUSH2 0x130 DUP5 CALLER EQ PUSH2 0xFA2 JUMP JUMPDEST DUP5 ISZERO PUSH2 0x16E JUMPI POP POP PUSH1 0x1 PUSH1 0x1 PUSH1 0xA0 SHL SUB NOT AND DUP3 OR PUSH1 0x1 SSTORE PUSH32 0x8BE0079C531659141344CD1FD0A4F28419497F9722A3DAAFE3B4186F6B6457E0 DUP4 DUP1 LOG3 DUP1 RETURN JUMPDEST SWAP1 PUSH1 0x20 PUSH1 0x64 SWAP3 MLOAD SWAP2 PUSH3 0x461BCD PUSH1 0xE5 SHL DUP4 MSTORE DUP3 ADD MSTORE PUSH1 0x11 PUSH1 0x24 DUP3 ADD MSTORE PUSH17 0x24B73B30B634B2103732BB9037BBB732B9 PUSH1 0x79 SHL PUSH1 0x44 DUP3 ADD MSTORE REVERT JUMPDEST DUP5 DUP1 REVERT JUMPDEST DUP3 DUP1 REVERT JUMPDEST POP CALLVALUE PUSH2 0x1A9 JUMPI PUSH1 0x20 CALLDATASIZE PUSH1 0x3 NOT ADD SLT PUSH2 0x1A9 JUMPI PUSH2 0x214 DUP2 PUSH1 0xC0 SWAP5 DUP5 CALLDATALOAD DUP2 MSTORE DUP5 PUSH1 0x20 MSTORE KECCAK256 DUP1 SLOAD SWAP4 PUSH1 0x1 DUP1 PUSH1 0xA0 SHL SUB PUSH1 0x1 DUP4 ADD SLOAD AND SWAP4 PUSH1 0x2 DUP4 ADD SLOAD SWAP1 PUSH1 0x5 PUSH1 0xFF PUSH1 0x3 DUP7 ADD SLOAD SWAP5 DUP7 ADD SLOAD AND SWAP5 ADD SLOAD SWAP6 DUP2 MLOAD SWAP8 DUP9 MSTORE PUSH1 0x20 DUP9 ADD MSTORE DUP7 ADD MSTORE PUSH1 0x60 DUP6 ADD MSTORE PUSH1 0x80 DUP5 ADD SWAP1 PUSH2 0xF7F JUMP JUMPDEST PUSH1 0xA0 DUP3 ADD MSTORE RETURN JUMPDEST POP SWAP1 CALLVALUE PUSH2 0x1A9 JUMPI PUSH1 0x20 CALLDATASIZE PUSH1 0x3 NOT ADD SLT PUSH2 0x1A9 JUMPI DUP1 PUSH8 0xDE0B6B3A7640000 DUP4 PUSH1 0x60 SWAP6 PUSH2 0x2A6 SWAP5 CALLDATALOAD DUP2 MSTORE DUP4 PUSH1 0x20 MSTORE KECCAK256 DUP5 MLOAD PUSH2 0x253 DUP2 PUSH2 0x101C JUMP JUMPDEST DUP2 SLOAD DUP2 MSTORE PUSH1 0x1 DUP1 PUSH1 0xA0 SHL SUB PUSH1 0x1 DUP4 ADD SLOAD AND PUSH1 0x20 DUP3 ADD MSTORE PUSH1 0xA0 PUSH1 0x5 PUSH1 0x2 DUP5 ADD SLOAD SWAP4 DUP9 DUP5 ADD SWAP5 DUP6 MSTORE PUSH2 0x297 PUSH1 0xFF PUSH1 0x3 DUP4 ADD SLOAD SWAP9 DUP13 DUP8 ADD SWAP10 DUP11 MSTORE DUP4 ADD SLOAD AND PUSH1 0x80 DUP7 ADD PUSH2 0x10CF JUMP JUMPDEST ADD SLOAD SWAP2 ADD MSTORE MLOAD DIV SWAP1 MLOAD SWAP1 PUSH2 0x1159 JUMP JUMPDEST SWAP1 PUSH2 0x2710 PUSH2 0x2B6 PUSH1 0x3 SLOAD DUP5 PUSH2 0x1159 JUMP JUMPDEST DIV SWAP1 PUSH2 0x2C2 DUP3 DUP5 PUSH2 0x116C JUMP JUMPDEST SWAP2 DUP2 MLOAD SWAP4 DUP5 MSTORE PUSH1 0x20 DUP5 ADD MSTORE DUP3 ADD MSTORE RETURN JUMPDEST POP CALLVALUE PUSH2 0x1A9 JUMPI PUSH1 0x20 CALLDATASIZE PUSH1 0x3 NOT ADD SLT PUSH2 0x1A9 JUMPI DUP2 CALLDATALOAD SWAP2 PUSH2 0x2FC PUSH1 0x1 DUP1 PUSH1 0xA0 SHL SUB PUSH1 0x1 SLOAD AND CALLER EQ PUSH2 0xFA2 JUMP JUMPDEST PUSH2 0x1F4 DUP4 GT PUSH2 0x337 JUMPI POP DUP2 PUSH1 0x20 SWAP2 PUSH32 0x45610D581145924DD7090A5017E5F2B1D6F42213BB2E95707FF86846BBFCB1CA SWAP4 PUSH1 0x3 SSTORE MLOAD SWAP1 DUP2 MSTORE LOG1 DUP1 RETURN JUMPDEST PUSH1 0x20 PUSH1 0x64 SWAP3 MLOAD SWAP2 PUSH3 0x461BCD PUSH1 0xE5 SHL DUP4 MSTORE DUP3 ADD MSTORE PUSH1 0xC PUSH1 0x24 DUP3 ADD MSTORE PUSH12 0x8CCACA40E8DEDE40D0D2CED PUSH1 0xA3 SHL PUSH1 0x44 DUP3 ADD MSTORE REVERT JUMPDEST POP CALLVALUE PUSH2 0x1A9 JUMPI DUP1 PUSH1 0x3 NOT CALLDATASIZE ADD SLT PUSH2 0x1A9 JUMPI DUP2 CALLDATALOAD PUSH1 0x24 DUP1 CALLDATALOAD SWAP4 PUSH2 0x392 PUSH1 0xFF PUSH1 0x1 SLOAD PUSH1 0xA0 SHR AND ISZERO PUSH2 0xFDB JUMP JUMPDEST DUP3 ISZERO PUSH2 0x57E JUMPI DUP5 ISZERO PUSH2 0x544 JUMPI DUP6 SWAP1 PUSH1 0x1 DUP1 PUSH1 0xA0 SHL SUB SWAP3 DUP4 DUP4 SLOAD AND DUP7 MLOAD SWAP1 PUSH4 0x23B872DD PUSH1 0xE0 SHL DUP3 MSTORE CALLER DUP5 DUP4 ADD MSTORE ADDRESS DUP4 DUP4 ADD MSTORE DUP7 PUSH1 0x44 DUP4 ADD MSTORE DUP2 PUSH1 0x64 DUP2 PUSH1 0x20 SWAP13 DUP14 SWAP5 GAS CALL SWAP1 DUP2 ISZERO PUSH2 0x53A JUMPI DUP5 SWAP2 PUSH2 0x50D JUMPI JUMPDEST POP ISZERO PUSH2 0x4D3 JUMPI SWAP1 DUP8 SWAP2 PUSH2 0x3F6 PUSH1 0x2 SLOAD PUSH2 0x10AA JUMP JUMPDEST SWAP4 DUP5 PUSH1 0x2 SSTORE DUP8 MLOAD SWAP6 PUSH2 0x407 DUP8 PUSH2 0x101C JUMP JUMPDEST DUP6 DUP8 MSTORE DUP5 DUP8 ADD CALLER DUP2 MSTORE DUP10 DUP9 ADD SWAP1 DUP10 DUP3 MSTORE PUSH1 0x60 DUP10 ADD SWAP3 DUP13 DUP5 MSTORE DUP7 PUSH1 0x80 DUP12 ADD SWAP9 DUP7 DUP11 MSTORE PUSH1 0xA0 DUP13 ADD SWAP11 TIMESTAMP DUP13 MSTORE DUP8 MSTORE MSTORE DUP12 DUP6 KECCAK256 SWAP10 MLOAD DUP11 SSTORE PUSH1 0x1 DUP11 ADD SWAP2 MLOAD AND PUSH12 0xFFFFFFFFFFFFFFFFFFFFFFFF PUSH1 0xA0 SHL DUP3 SLOAD AND OR SWAP1 SSTORE MLOAD PUSH1 0x2 DUP9 ADD SSTORE MLOAD PUSH1 0x3 DUP8 ADD SSTORE DUP3 DUP7 ADD SWAP4 MLOAD SWAP3 PUSH1 0x3 DUP5 LT ISZERO PUSH2 0x4C3 JUMPI POP POP POP SWAP1 PUSH1 0x5 SWAP3 SWAP2 PUSH1 0xFF DUP1 NOT DUP4 SLOAD AND SWAP2 AND OR SWAP1 SSTORE MLOAD SWAP2 ADD SSTORE PUSH1 0x2 SLOAD SWAP3 DUP3 MLOAD SWAP2 DUP3 MSTORE DUP5 DUP3 ADD MSTORE DUP3 PUSH32 0x12DC294B81A709D694B1337A350A12A00076C19A77A25AAB67A5F0C07E0F164D DUP4 CALLER SWAP4 LOG3 MLOAD SWAP1 DUP2 MSTORE RETURN JUMPDEST PUSH4 0x4E487B71 PUSH1 0xE0 SHL DUP3 MSTORE PUSH1 0x21 SWAP1 MSTORE REVERT JUMPDEST DUP6 MLOAD PUSH3 0x461BCD PUSH1 0xE5 SHL DUP2 MSTORE SWAP2 DUP3 ADD DUP9 SWAP1 MSTORE PUSH1 0x15 SWAP1 DUP3 ADD MSTORE PUSH21 0x151BDAD95B881D1C985B9CD9995C8819985A5B1959 PUSH1 0x5A SHL PUSH1 0x44 DUP3 ADD MSTORE PUSH1 0x64 SWAP1 REVERT JUMPDEST PUSH2 0x52D SWAP2 POP DUP10 RETURNDATASIZE DUP12 GT PUSH2 0x533 JUMPI JUMPDEST PUSH2 0x525 DUP2 DUP4 PUSH2 0x106B JUMP JUMPDEST DUP2 ADD SWAP1 PUSH2 0x108D JUMP JUMPDEST CODESIZE PUSH2 0x3E2 JUMP JUMPDEST POP RETURNDATASIZE PUSH2 0x51B JUMP JUMPDEST DUP8 MLOAD RETURNDATASIZE DUP7 DUP3 RETURNDATACOPY RETURNDATASIZE SWAP1 REVERT JUMPDEST PUSH1 0x16 PUSH1 0x64 SWAP3 PUSH1 0x20 DUP7 MLOAD SWAP4 PUSH3 0x461BCD PUSH1 0xE5 SHL DUP6 MSTORE DUP5 ADD MSTORE DUP3 ADD MSTORE PUSH22 0x5072696365206D75737420626520706F736974697665 PUSH1 0x50 SHL PUSH1 0x44 DUP3 ADD MSTORE REVERT JUMPDEST PUSH1 0x17 PUSH1 0x64 SWAP3 PUSH1 0x20 DUP7 MLOAD SWAP4 PUSH3 0x461BCD PUSH1 0xE5 SHL DUP6 MSTORE DUP5 ADD MSTORE DUP3 ADD MSTORE PUSH32 0x416D6F756E74206D75737420626520706F736974697665000000000000000000 PUSH1 0x44 DUP3 ADD MSTORE REVERT JUMPDEST DUP4 DUP3 CALLVALUE PUSH2 0x5E8 JUMPI DUP2 PUSH1 0x3 NOT CALLDATASIZE ADD SLT PUSH2 0x5E8 JUMPI PUSH1 0x1 SLOAD SWAP1 MLOAD PUSH1 0x1 PUSH1 0x1 PUSH1 0xA0 SHL SUB SWAP1 SWAP2 AND DUP2 MSTORE PUSH1 0x20 SWAP1 RETURN JUMPDEST POP DUP1 REVERT JUMPDEST DUP4 DUP3 CALLVALUE PUSH2 0x5E8 JUMPI DUP2 PUSH1 0x3 NOT CALLDATASIZE ADD SLT PUSH2 0x5E8 JUMPI PUSH1 0x20 SWAP1 PUSH1 0x3 SLOAD SWAP1 MLOAD SWAP1 DUP2 MSTORE RETURN JUMPDEST DUP4 CALLVALUE PUSH2 0x646 JUMPI DUP1 PUSH1 0x3 NOT CALLDATASIZE ADD SLT PUSH2 0x646 JUMPI PUSH1 0x1 SLOAD PUSH2 0x633 CALLER PUSH1 0x1 PUSH1 0x1 PUSH1 0xA0 SHL SUB DUP4 AND EQ PUSH2 0xFA2 JUMP JUMPDEST PUSH1 0xFF PUSH1 0xA0 SHL NOT AND PUSH1 0x1 PUSH1 0xA0 SHL OR PUSH1 0x1 SSTORE DUP1 RETURN JUMPDEST DUP1 REVERT JUMPDEST DUP4 DUP3 CALLVALUE PUSH2 0x5E8 JUMPI DUP2 PUSH1 0x3 NOT CALLDATASIZE ADD SLT PUSH2 0x5E8 JUMPI PUSH1 0x20 SWAP1 PUSH1 0x2 SLOAD SWAP1 MLOAD SWAP1 DUP2 MSTORE RETURN JUMPDEST DUP4 DUP3 CALLVALUE PUSH2 0x5E8 JUMPI DUP2 PUSH1 0x3 NOT CALLDATASIZE ADD SLT PUSH2 0x5E8 JUMPI PUSH1 0x20 SWAP1 PUSH1 0x6 SLOAD SWAP1 MLOAD SWAP1 DUP2 MSTORE RETURN JUMPDEST DUP4 DUP3 CALLVALUE PUSH2 0x5E8 JUMPI DUP2 PUSH1 0x3 NOT CALLDATASIZE ADD SLT PUSH2 0x5E8 JUMPI PUSH1 0x20 SWAP1 PUSH1 0xFF PUSH1 0x1 SLOAD PUSH1 0xA0 SHR AND SWAP1 MLOAD SWAP1 ISZERO ISZERO DUP2 MSTORE RETURN JUMPDEST DUP4 DUP3 CALLVALUE PUSH2 0x5E8 JUMPI DUP2 PUSH1 0x3 NOT CALLDATASIZE ADD SLT PUSH2 0x5E8 JUMPI SWAP1 SLOAD SWAP1 MLOAD PUSH1 0x1 PUSH1 0x1 PUSH1 0xA0 SHL SUB SWAP1 SWAP2 AND DUP2 MSTORE PUSH1 0x20 SWAP1 RETURN JUMPDEST POP CALLVALUE PUSH2 0x1A9 JUMPI DUP3 PUSH1 0x3 NOT CALLDATASIZE ADD SLT PUSH2 0x1A9 JUMPI PUSH1 0x1 SLOAD PUSH1 0x1 PUSH1 0x1 PUSH1 0xA0 SHL SUB AND PUSH2 0x6FE CALLER DUP3 EQ PUSH2 0xFA2 JUMP JUMPDEST SELFBALANCE SWAP1 DUP2 ISZERO PUSH2 0x757 JUMPI DUP5 DUP1 DUP1 SWAP4 DUP2 SWAP4 GAS CALL PUSH2 0x716 PUSH2 0x1179 JUMP JUMPDEST POP ISZERO PUSH2 0x720 JUMPI DUP3 DUP1 RETURN JUMPDEST SWAP1 PUSH1 0x20 PUSH1 0x64 SWAP3 MLOAD SWAP2 PUSH3 0x461BCD PUSH1 0xE5 SHL DUP4 MSTORE DUP3 ADD MSTORE PUSH1 0x11 PUSH1 0x24 DUP3 ADD MSTORE PUSH17 0x15DA5D1A191C985DD85B0819985A5B1959 PUSH1 0x7A SHL PUSH1 0x44 DUP3 ADD MSTORE REVERT JUMPDEST DUP3 MLOAD PUSH3 0x461BCD PUSH1 0xE5 SHL DUP2 MSTORE PUSH1 0x20 DUP2 DUP7 ADD MSTORE PUSH1 0x13 PUSH1 0x24 DUP3 ADD MSTORE PUSH19 0x4E6F206665657320746F207769746864726177 PUSH1 0x68 SHL PUSH1 0x44 DUP3 ADD MSTORE PUSH1 0x64 SWAP1 REVERT JUMPDEST DUP4 CALLVALUE PUSH2 0x646 JUMPI DUP1 PUSH1 0x3 NOT CALLDATASIZE ADD SLT PUSH2 0x646 JUMPI PUSH1 0x1 SLOAD PUSH2 0x7B8 CALLER PUSH1 0x1 PUSH1 0x1 PUSH1 0xA0 SHL SUB DUP4 AND EQ PUSH2 0xFA2 JUMP JUMPDEST PUSH1 0xFF PUSH1 0xA0 SHL NOT AND PUSH1 0x1 SSTORE DUP1 RETURN JUMPDEST POP SWAP1 CALLVALUE PUSH2 0x1A9 JUMPI PUSH1 0x20 DUP1 PUSH1 0x3 NOT CALLDATASIZE ADD SLT PUSH2 0x964 JUMPI DUP2 CALLDATALOAD SWAP3 PUSH2 0x7EB PUSH1 0x2 PUSH1 0x7 SLOAD EQ ISZERO PUSH2 0x10DB JUMP JUMPDEST PUSH1 0x2 PUSH1 0x7 SSTORE DUP4 DUP6 MSTORE DUP3 DUP3 MSTORE DUP1 DUP6 KECCAK256 PUSH1 0x1 DUP2 ADD SLOAD PUSH1 0x1 PUSH1 0x1 PUSH1 0xA0 SHL SUB SWAP1 DUP2 AND SWAP2 SWAP1 CALLER DUP4 SUB PUSH2 0x930 JUMPI DUP6 DUP3 ADD DUP1 SLOAD PUSH1 0xFF DUP2 AND PUSH1 0x3 DUP2 LT ISZERO PUSH2 0x91D JUMPI SWAP3 DUP8 SWAP5 SWAP3 PUSH1 0x2 DUP1 SWAP4 PUSH2 0x83A PUSH2 0x878 SWAP10 SWAP8 ISZERO PUSH2 0x1118 JUMP JUMPDEST PUSH1 0xFF NOT AND OR SWAP1 SSTORE DUP11 SLOAD AND SWAP2 ADD SLOAD SWAP2 DUP10 DUP7 MLOAD DUP1 SWAP7 DUP2 SWAP6 DUP3 SWAP5 PUSH4 0xA9059CBB PUSH1 0xE0 SHL DUP5 MSTORE DUP13 DUP5 ADD PUSH1 0x20 SWAP1 SWAP4 SWAP3 SWAP2 SWAP4 PUSH1 0x40 DUP2 ADD SWAP5 PUSH1 0x1 DUP1 PUSH1 0xA0 SHL SUB AND DUP2 MSTORE ADD MSTORE JUMP JUMPDEST SUB SWAP3 GAS CALL SWAP1 DUP2 ISZERO PUSH2 0x913 JUMPI DUP7 SWAP2 PUSH2 0x8F6 JUMPI JUMPDEST POP ISZERO PUSH2 0x8BF JUMPI POP POP POP PUSH32 0x411AEE90354C51B1B04CD563FCAB2617142A9D50DA19232D888547C8A1B7FD8A DUP3 DUP1 LOG2 PUSH1 0x1 PUSH1 0x7 SSTORE DUP1 RETURN JUMPDEST MLOAD PUSH3 0x461BCD PUSH1 0xE5 SHL DUP2 MSTORE SWAP2 DUP3 ADD MSTORE PUSH1 0x13 PUSH1 0x24 DUP3 ADD MSTORE PUSH19 0x151BDAD95B881C995D1D5C9B8819985A5B1959 PUSH1 0x6A SHL PUSH1 0x44 DUP3 ADD MSTORE PUSH1 0x64 SWAP2 POP REVERT JUMPDEST PUSH2 0x90D SWAP2 POP DUP4 RETURNDATASIZE DUP6 GT PUSH2 0x533 JUMPI PUSH2 0x525 DUP2 DUP4 PUSH2 0x106B JUMP JUMPDEST CODESIZE PUSH2 0x88A JUMP JUMPDEST DUP3 MLOAD RETURNDATASIZE DUP9 DUP3 RETURNDATACOPY RETURNDATASIZE SWAP1 REVERT JUMPDEST PUSH4 0x4E487B71 PUSH1 0xE0 SHL DUP12 MSTORE PUSH1 0x21 DUP10 MSTORE PUSH1 0x24 DUP12 REVERT JUMPDEST DUP4 MLOAD PUSH3 0x461BCD PUSH1 0xE5 SHL DUP2 MSTORE DUP1 DUP8 ADD DUP7 SWAP1 MSTORE PUSH1 0xE PUSH1 0x24 DUP3 ADD MSTORE PUSH14 0x2737BA103A34329039B2B63632B9 PUSH1 0x91 SHL PUSH1 0x44 DUP3 ADD MSTORE PUSH1 0x64 SWAP1 REVERT JUMPDEST DUP4 DUP1 REVERT JUMPDEST SWAP2 SWAP3 SWAP1 POP CALLVALUE PUSH2 0x964 JUMPI PUSH1 0x20 CALLDATASIZE PUSH1 0x3 NOT ADD SLT PUSH2 0x964 JUMPI DUP3 DUP5 PUSH2 0x100 SWAP6 DUP5 DUP4 MLOAD PUSH2 0x98F DUP2 PUSH2 0x104E JUMP JUMPDEST DUP3 DUP2 MSTORE DUP3 PUSH1 0x20 DUP3 ADD MSTORE DUP3 DUP6 DUP3 ADD MSTORE DUP3 PUSH1 0x60 DUP3 ADD MSTORE DUP3 PUSH1 0x80 DUP3 ADD MSTORE DUP3 PUSH1 0xA0 DUP3 ADD MSTORE DUP3 PUSH1 0xC0 DUP3 ADD MSTORE ADD MSTORE DUP3 CALLDATALOAD DUP2 MSTORE PUSH1 0x5 PUSH1 0x20 MSTORE KECCAK256 DUP4 MLOAD SWAP2 PUSH2 0x9CD DUP4 PUSH2 0x104E JUMP JUMPDEST DUP2 SLOAD SWAP5 DUP6 DUP5 MSTORE PUSH1 0x1 DUP4 ADD SLOAD SWAP2 PUSH1 0x20 DUP6 ADD SWAP3 DUP4 MSTORE PUSH1 0x1 DUP1 PUSH1 0xA0 SHL SUB SWAP1 DUP2 PUSH1 0x2 DUP7 ADD SLOAD AND SWAP3 DUP1 DUP8 ADD SWAP4 DUP5 MSTORE DUP3 DUP1 PUSH1 0x3 DUP9 ADD SLOAD AND SWAP3 PUSH1 0x60 DUP10 ADD SWAP4 DUP5 MSTORE DUP8 ADD SLOAD SWAP5 PUSH1 0x80 DUP10 ADD SWAP6 DUP7 MSTORE PUSH1 0x5 DUP9 ADD SLOAD SWAP7 PUSH1 0xA0 DUP11 ADD SWAP8 DUP9 MSTORE DUP11 PUSH1 0x7 PUSH1 0x6 DUP12 ADD SLOAD SWAP11 PUSH1 0xC0 DUP14 ADD SWAP12 DUP13 MSTORE ADD SLOAD SWAP11 ADD SWAP10 DUP11 MSTORE DUP4 MLOAD SWAP12 DUP13 MSTORE MLOAD PUSH1 0x20 DUP13 ADD MSTORE MLOAD AND SWAP1 DUP10 ADD MSTORE MLOAD AND PUSH1 0x60 DUP8 ADD MSTORE MLOAD PUSH1 0x80 DUP7 ADD MSTORE MLOAD PUSH1 0xA0 DUP6 ADD MSTORE MLOAD PUSH1 0xC0 DUP5 ADD MSTORE MLOAD SWAP1 DUP3 ADD MSTORE RETURN JUMPDEST DUP5 SWAP4 SWAP2 POP CALLVALUE PUSH2 0x964 JUMPI PUSH1 0x20 CALLDATASIZE PUSH1 0x3 NOT ADD SLT PUSH2 0x964 JUMPI DUP3 PUSH2 0x100 SWAP5 DUP4 CALLDATALOAD DUP2 MSTORE PUSH1 0x5 PUSH1 0x20 MSTORE KECCAK256 DUP1 SLOAD SWAP4 PUSH1 0x1 DUP3 ADD SLOAD SWAP4 PUSH1 0x1 DUP1 PUSH1 0xA0 SHL SUB SWAP1 DUP2 PUSH1 0x2 DUP6 ADD SLOAD AND SWAP2 PUSH1 0x3 DUP6 ADD SLOAD AND SWAP1 DUP5 ADD SLOAD SWAP2 PUSH1 0x5 DUP6 ADD SLOAD SWAP4 PUSH1 0x7 PUSH1 0x6 DUP8 ADD SLOAD SWAP7 ADD SLOAD SWAP8 DUP2 MLOAD SWAP10 DUP11 MSTORE PUSH1 0x20 DUP11 ADD MSTORE DUP9 ADD MSTORE PUSH1 0x60 DUP8 ADD MSTORE PUSH1 0x80 DUP7 ADD MSTORE PUSH1 0xA0 DUP6 ADD MSTORE PUSH1 0xC0 DUP5 ADD MSTORE DUP3 ADD MSTORE RETURN JUMPDEST DUP3 DUP6 SWAP4 SWAP3 POP PUSH1 0x3 NOT CALLDATASIZE ADD SLT PUSH2 0x1A9 JUMPI DUP4 CALLDATALOAD PUSH2 0xB05 PUSH1 0x2 PUSH1 0x7 SLOAD EQ ISZERO PUSH2 0x10DB JUMP JUMPDEST PUSH1 0x2 PUSH1 0x7 SSTORE PUSH2 0xB1C PUSH1 0xFF PUSH1 0x1 SLOAD PUSH1 0xA0 SHR AND ISZERO PUSH2 0xFDB JUMP JUMPDEST DUP1 DUP5 MSTORE PUSH1 0x20 SWAP5 DUP1 DUP7 MSTORE DUP4 DUP6 KECCAK256 SWAP3 DUP2 DUP5 ADD SWAP2 PUSH1 0xFF DUP4 SLOAD AND PUSH1 0x3 DUP2 LT ISZERO PUSH2 0xE93 JUMPI PUSH2 0xB45 SWAP1 ISZERO PUSH2 0x1118 JUMP JUMPDEST PUSH1 0x1 DUP6 ADD SWAP7 PUSH1 0x1 DUP1 PUSH1 0xA0 SHL SUB SWAP3 DUP4 DUP10 SLOAD AND SWAP5 DUP6 CALLER EQ PUSH2 0xE57 JUMPI PUSH2 0xB7D PUSH1 0x2 DUP10 ADD SWAP9 PUSH1 0x3 PUSH8 0xDE0B6B3A7640000 DUP12 SLOAD DIV SWAP2 ADD SLOAD SWAP1 PUSH2 0x1159 JUMP JUMPDEST SWAP6 PUSH2 0xB97 PUSH2 0x2710 PUSH2 0xB90 PUSH1 0x3 SLOAD DUP11 PUSH2 0x1159 JUMP JUMPDEST DIV DUP9 PUSH2 0x116C JUMP JUMPDEST SWAP1 DUP8 CALLVALUE LT PUSH2 0xE14 JUMPI DUP5 DUP1 DUP1 SWAP4 DUP2 SWAP4 GAS CALL PUSH2 0xBAF PUSH2 0x1179 JUMP JUMPDEST POP ISZERO PUSH2 0xDD1 JUMPI DUP6 CALLVALUE GT PUSH2 0xD7B JUMPI JUMPDEST DUP3 SLOAD DUP9 SLOAD DUP11 MLOAD PUSH4 0xA9059CBB PUSH1 0xE0 SHL DUP2 MSTORE CALLER DUP8 DUP3 ADD SWAP1 DUP2 MSTORE PUSH1 0x20 DUP2 ADD SWAP3 SWAP1 SWAP3 MSTORE SWAP2 DUP14 SWAP2 DUP4 SWAP2 DUP10 AND SWAP1 DUP3 SWAP1 DUP9 SWAP1 DUP3 SWAP1 PUSH1 0x40 ADD SUB SWAP3 GAS CALL SWAP1 DUP2 ISZERO PUSH2 0xD71 JUMPI DUP5 SWAP2 PUSH2 0xD54 JUMPI JUMPDEST POP ISZERO PUSH2 0xD11 JUMPI DUP6 PUSH1 0x5 SWAP5 PUSH1 0x7 SWAP5 DUP11 DUP14 SWAP6 DUP16 SWAP6 DUP15 DUP14 SWAP2 PUSH1 0x1 PUSH1 0xFF NOT DUP3 SLOAD AND OR SWAP1 SSTORE DUP12 PUSH2 0xC2B PUSH1 0x6 SLOAD PUSH2 0x10AA JUMP JUMPDEST SWAP10 DUP11 PUSH1 0x6 SSTORE SLOAD AND SWAP4 SLOAD SWAP5 DUP2 MLOAD SWAP12 DUP13 SWAP10 PUSH2 0xC43 DUP12 PUSH2 0x104E JUMP JUMPDEST DUP12 DUP12 MSTORE DUP1 DUP12 ADD SWAP5 DUP6 MSTORE DUP4 DUP12 ADD SWAP6 CALLER DUP8 MSTORE PUSH1 0x60 DUP13 ADD SWAP8 DUP9 MSTORE PUSH1 0x80 DUP13 ADD SWAP9 DUP10 MSTORE PUSH1 0xA0 DUP13 ADD SWAP11 DUP12 MSTORE PUSH1 0xC0 DUP13 ADD SWAP12 TIMESTAMP DUP14 MSTORE ADD SWAP12 PUSH1 0x24 CALLDATALOAD DUP14 MSTORE DUP4 MSTORE MSTORE KECCAK256 SWAP10 MLOAD DUP11 SSTORE MLOAD PUSH1 0x1 DUP11 ADD SSTORE DUP10 PUSH1 0x2 DUP11 ADD SWAP2 MLOAD AND SWAP1 PUSH12 0xFFFFFFFFFFFFFFFFFFFFFFFF PUSH1 0xA0 SHL SWAP2 DUP3 DUP3 SLOAD AND OR SWAP1 SSTORE DUP10 PUSH1 0x3 DUP11 ADD SWAP3 MLOAD AND SWAP1 DUP3 SLOAD AND OR SWAP1 SSTORE MLOAD SWAP1 DUP7 ADD SSTORE MLOAD PUSH1 0x5 DUP6 ADD SSTORE MLOAD PUSH1 0x6 DUP5 ADD SSTORE MLOAD SWAP2 ADD SSTORE PUSH1 0x6 SLOAD SWAP6 SLOAD AND SWAP3 SLOAD DUP5 MLOAD SWAP4 DUP5 MSTORE DUP7 DUP5 ADD MSTORE DUP4 DUP4 ADD MSTORE DUP4 PUSH32 0x15E0D41A04DD94271EBA462C33812EE3D36A08EDDCF7E4CFF32F9EF872DEA02E PUSH1 0x60 CALLER SWAP5 LOG4 PUSH1 0x1 PUSH1 0x7 SSTORE MLOAD SWAP1 DUP2 MSTORE RETURN JUMPDEST DUP9 MLOAD PUSH3 0x461BCD PUSH1 0xE5 SHL DUP2 MSTORE DUP1 DUP6 ADD DUP13 SWAP1 MSTORE PUSH1 0x1E PUSH1 0x24 DUP3 ADD MSTORE PUSH32 0x546F6B656E207472616E7366657220746F206275796572206661696C65640000 PUSH1 0x44 DUP3 ADD MSTORE PUSH1 0x64 SWAP1 REVERT JUMPDEST PUSH2 0xD6B SWAP2 POP DUP13 DUP14 RETURNDATASIZE LT PUSH2 0x533 JUMPI PUSH2 0x525 DUP2 DUP4 PUSH2 0x106B JUMP JUMPDEST DUP13 PUSH2 0xBFF JUMP JUMPDEST DUP11 MLOAD RETURNDATASIZE DUP7 DUP3 RETURNDATACOPY RETURNDATASIZE SWAP1 REVERT JUMPDEST DUP3 DUP1 DUP1 DUP1 PUSH2 0xD89 DUP11 CALLVALUE PUSH2 0x116C JUMP JUMPDEST CALLER GAS CALL PUSH2 0xD94 PUSH2 0x1179 JUMP JUMPDEST POP PUSH2 0xBBD JUMPI DUP9 MLOAD PUSH3 0x461BCD PUSH1 0xE5 SHL DUP2 MSTORE DUP1 DUP6 ADD DUP13 SWAP1 MSTORE PUSH1 0x12 PUSH1 0x24 DUP3 ADD MSTORE PUSH18 0x12109054881C99599D5B990819985A5B1959 PUSH1 0x72 SHL PUSH1 0x44 DUP3 ADD MSTORE PUSH1 0x64 SWAP1 REVERT JUMPDEST DUP9 MLOAD PUSH3 0x461BCD PUSH1 0xE5 SHL DUP2 MSTORE DUP1 DUP6 ADD DUP13 SWAP1 MSTORE PUSH1 0x1D PUSH1 0x24 DUP3 ADD MSTORE PUSH32 0x48424152207061796D656E7420746F2073656C6C6572206661696C6564000000 PUSH1 0x44 DUP3 ADD MSTORE PUSH1 0x64 SWAP1 REVERT JUMPDEST DUP11 MLOAD PUSH3 0x461BCD PUSH1 0xE5 SHL DUP2 MSTORE DUP1 DUP8 ADD DUP15 SWAP1 MSTORE PUSH1 0x19 PUSH1 0x24 DUP3 ADD MSTORE PUSH32 0x496E73756666696369656E742048424152207061796D656E7400000000000000 PUSH1 0x44 DUP3 ADD MSTORE PUSH1 0x64 SWAP1 REVERT JUMPDEST DUP9 MLOAD PUSH3 0x461BCD PUSH1 0xE5 SHL DUP2 MSTORE DUP1 DUP6 ADD DUP13 SWAP1 MSTORE PUSH1 0x16 PUSH1 0x24 DUP3 ADD MSTORE PUSH22 0x43616E6E6F7420627579206F776E206C697374696E67 PUSH1 0x50 SHL PUSH1 0x44 DUP3 ADD MSTORE PUSH1 0x64 SWAP1 REVERT JUMPDEST PUSH4 0x4E487B71 PUSH1 0xE0 SHL DUP9 MSTORE PUSH1 0x21 DUP3 MSTORE PUSH1 0x24 DUP9 REVERT JUMPDEST SWAP2 POP POP CALLVALUE PUSH2 0x964 JUMPI PUSH1 0x20 CALLDATASIZE PUSH1 0x3 NOT ADD SLT PUSH2 0x964 JUMPI DUP2 DUP5 PUSH1 0xC0 SWAP6 PUSH1 0xA0 DUP5 PUSH2 0xECE PUSH2 0xF77 SWAP7 PUSH2 0x101C JUMP JUMPDEST DUP3 DUP2 MSTORE DUP3 PUSH1 0x20 DUP3 ADD MSTORE DUP3 DUP6 DUP3 ADD MSTORE DUP3 PUSH1 0x60 DUP3 ADD MSTORE DUP3 PUSH1 0x80 DUP3 ADD MSTORE ADD MSTORE DUP5 CALLDATALOAD DUP2 MSTORE DUP5 PUSH1 0x20 MSTORE KECCAK256 DUP3 MLOAD SWAP4 PUSH2 0xEFF DUP6 PUSH2 0x101C JUMP JUMPDEST DUP2 SLOAD DUP6 MSTORE PUSH1 0x1 DUP1 PUSH1 0xA0 SHL SUB SWAP4 DUP5 PUSH1 0x1 DUP5 ADD SLOAD AND SWAP5 PUSH1 0x20 DUP8 ADD SWAP6 DUP7 MSTORE PUSH1 0x2 DUP5 ADD SLOAD SWAP1 DUP3 DUP9 ADD SWAP2 DUP3 MSTORE PUSH1 0x5 PUSH1 0xFF PUSH1 0x3 DUP8 ADD SLOAD SWAP6 PUSH1 0x60 DUP12 ADD SWAP7 DUP8 MSTORE DUP8 ADD SLOAD AND SWAP6 PUSH2 0xF4A PUSH1 0x80 DUP12 ADD SWAP8 DUP9 PUSH2 0x10CF JUMP JUMPDEST ADD SLOAD SWAP7 PUSH1 0xA0 DUP10 ADD SWAP8 DUP9 MSTORE DUP4 MLOAD SWAP9 MLOAD DUP10 MSTORE MLOAD AND PUSH1 0x20 DUP9 ADD MSTORE MLOAD SWAP1 DUP7 ADD MSTORE MLOAD PUSH1 0x60 DUP6 ADD MSTORE MLOAD PUSH1 0x80 DUP5 ADD SWAP1 PUSH2 0xF7F JUMP JUMPDEST MLOAD PUSH1 0xA0 DUP3 ADD MSTORE RETURN JUMPDEST SWAP1 PUSH1 0x3 DUP3 LT ISZERO PUSH2 0xF8C JUMPI MSTORE JUMP JUMPDEST PUSH4 0x4E487B71 PUSH1 0xE0 SHL PUSH1 0x0 MSTORE PUSH1 0x21 PUSH1 0x4 MSTORE PUSH1 0x24 PUSH1 0x0 REVERT JUMPDEST ISZERO PUSH2 0xFA9 JUMPI JUMP JUMPDEST PUSH1 0x40 MLOAD PUSH3 0x461BCD PUSH1 0xE5 SHL DUP2 MSTORE PUSH1 0x20 PUSH1 0x4 DUP3 ADD MSTORE PUSH1 0xA PUSH1 0x24 DUP3 ADD MSTORE PUSH10 0x27B7363C9037BBB732B9 PUSH1 0xB1 SHL PUSH1 0x44 DUP3 ADD MSTORE PUSH1 0x64 SWAP1 REVERT JUMPDEST ISZERO PUSH2 0xFE2 JUMPI JUMP JUMPDEST PUSH1 0x40 MLOAD PUSH3 0x461BCD PUSH1 0xE5 SHL DUP2 MSTORE PUSH1 0x20 PUSH1 0x4 DUP3 ADD MSTORE PUSH1 0x12 PUSH1 0x24 DUP3 ADD MSTORE PUSH18 0x10DBDB9D1C9858DD081A5CC81C185D5CD959 PUSH1 0x72 SHL PUSH1 0x44 DUP3 ADD MSTORE PUSH1 0x64 SWAP1 REVERT JUMPDEST PUSH1 0xC0 DUP2 ADD SWAP1 DUP2 LT PUSH8 0xFFFFFFFFFFFFFFFF DUP3 GT OR PUSH2 0x1038 JUMPI PUSH1 0x40 MSTORE JUMP JUMPDEST PUSH4 0x4E487B71 PUSH1 0xE0 SHL PUSH1 0x0 MSTORE PUSH1 0x41 PUSH1 0x4 MSTORE PUSH1 0x24 PUSH1 0x0 REVERT JUMPDEST PUSH2 0x100 DUP2 ADD SWAP1 DUP2 LT PUSH8 0xFFFFFFFFFFFFFFFF DUP3 GT OR PUSH2 0x1038 JUMPI PUSH1 0x40 MSTORE JUMP JUMPDEST SWAP1 PUSH1 0x1F DUP1 NOT SWAP2 ADD AND DUP2 ADD SWAP1 DUP2 LT PUSH8 0xFFFFFFFFFFFFFFFF DUP3 GT OR PUSH2 0x1038 JUMPI PUSH1 0x40 MSTORE JUMP JUMPDEST SWAP1 DUP2 PUSH1 0x20 SWAP2 SUB SLT PUSH2 0x10A5 JUMPI MLOAD DUP1 ISZERO ISZERO DUP2 SUB PUSH2 0x10A5 JUMPI SWAP1 JUMP JUMPDEST PUSH1 0x0 DUP1 REVERT JUMPDEST PUSH1 0x0 NOT DUP2 EQ PUSH2 0x10B9 JUMPI PUSH1 0x1 ADD SWAP1 JUMP JUMPDEST PUSH4 0x4E487B71 PUSH1 0xE0 SHL PUSH1 0x0 MSTORE PUSH1 0x11 PUSH1 0x4 MSTORE PUSH1 0x24 PUSH1 0x0 REVERT JUMPDEST PUSH1 0x3 DUP3 LT ISZERO PUSH2 0xF8C JUMPI MSTORE JUMP JUMPDEST ISZERO PUSH2 0x10E2 JUMPI JUMP JUMPDEST PUSH1 0x40 MLOAD PUSH3 0x461BCD PUSH1 0xE5 SHL DUP2 MSTORE PUSH1 0x20 PUSH1 0x4 DUP3 ADD MSTORE PUSH1 0xE PUSH1 0x24 DUP3 ADD MSTORE PUSH14 0x1499595B9D1C985B9D0818D85B1B PUSH1 0x92 SHL PUSH1 0x44 DUP3 ADD MSTORE PUSH1 0x64 SWAP1 REVERT JUMPDEST ISZERO PUSH2 0x111F JUMPI JUMP JUMPDEST PUSH1 0x40 MLOAD PUSH3 0x461BCD PUSH1 0xE5 SHL DUP2 MSTORE PUSH1 0x20 PUSH1 0x4 DUP3 ADD MSTORE PUSH1 0x12 PUSH1 0x24 DUP3 ADD MSTORE PUSH18 0x4C697374696E67206E6F7420616374697665 PUSH1 0x70 SHL PUSH1 0x44 DUP3 ADD MSTORE PUSH1 0x64 SWAP1 REVERT JUMPDEST DUP2 DUP2 MUL SWAP3 SWAP2 DUP2 ISZERO SWAP2 DUP5 DIV EQ OR ISZERO PUSH2 0x10B9 JUMPI JUMP JUMPDEST SWAP2 SWAP1 DUP3 SUB SWAP2 DUP3 GT PUSH2 0x10B9 JUMPI JUMP JUMPDEST RETURNDATASIZE ISZERO PUSH2 0x11B4 JUMPI RETURNDATASIZE SWAP1 PUSH8 0xFFFFFFFFFFFFFFFF DUP3 GT PUSH2 0x1038 JUMPI PUSH1 0x40 MLOAD SWAP2 PUSH2 0x11A8 PUSH1 0x1F DUP3 ADD PUSH1 0x1F NOT AND PUSH1 0x20 ADD DUP5 PUSH2 0x106B JUMP JUMPDEST DUP3 MSTORE RETURNDATASIZE PUSH1 0x0 PUSH1 0x20 DUP5 ADD RETURNDATACOPY JUMP JUMPDEST PUSH1 0x60 SWAP1 JUMP INVALID LOG2 PUSH5 0x6970667358 0x22 SLT KECCAK256 XOR 0xDB 0xEE PUSH9 0xB1324AF74649F51138 DIV DUP7 JUMPDEST 0xB5 0xE0 PUSH12 0xFE005B34D58398E43561F533 0xDB PUSH5 0x736F6C6343 STOP ADDMOD EQ STOP CALLER "},"methodIdentifiers":{"buyEnergy(uint256,bytes32)":"1299d7f0","calculatePrice(uint256)":"ae104265","cancelListing(uint256)":"305a67a8","createListing(uint256,uint256)":"a79123a9","energyToken()":"4ec7fb81","getActiveListing(uint256)":"1030f05f","getTrade(uint256)":"2db25e05","listingCounter()":"6c2c9c7d","listings(uint256)":"de74e57b","owner()":"8da5cb5b","pause()":"8456cb59","paused()":"5c975abb","platformFeePercent()":"8c639a85","tradeCounter()":"660d15b5","trades(uint256)":"1e6c598e","transferOwnership(address)":"f2fde38b","unpause()":"3f4ba83a","updatePlatformFee(uint256)":"aa0b5988","withdrawFees()":"476343ee"}}}}}