{"contracts/Sungrid.sol":{"SunGridRewards":{"abi":[{"inputs":[{"internalType":"address","name":"_energyTokenAddress","type":"address"},{"internalType":"address","name":"_marketplaceAddress","type":"address"}],"stateMutability":"nonpayable","type":"constructor"},{"anonymous":false,"inputs":[{"indexed":true,"internalType":"address","name":"user","type":"address"},{"indexed":false,"internalType":"uint256","name":"amount","type":"uint256"}],"name":"CarbonCreditsIssued","type":"event"},{"anonymous":false,"inputs":[{"indexed":true,"internalType":"address","name":"user","type":"address"},{"indexed":false,"internalType":"uint256","name":"amount","type":"uint256"}],"name":"EcoPointsAwarded","type":"event"},{"anonymous":false,"inputs":[{"indexed":true,"internalType":"address","name":"previousOwner","type":"address"},{"indexed":true,"internalType":"address","name":"newOwner","type":"address"}],"name":"OwnershipTransferred","type":"event"},{"anonymous":false,"inputs":[{"indexed":true,"internalType":"address","name":"user","type":"address"},{"indexed":false,"internalType":"uint256","name":"carbonCredits","type":"uint256"},{"indexed":false,"internalType":"uint256","name":"ecoPoints","type":"uint256"}],"name":"RewardsClaimed","type":"event"},{"inputs":[{"internalType":"address","name":"user","type":"address"}],"name":"calculateCarbonOffset","outputs":[{"internalType":"uint256","name":"","type":"uint256"}],"stateMutability":"view","type":"function"},{"inputs":[],"name":"carbonCreditRate","outputs":[{"internalType":"uint256","name":"","type":"uint256"}],"stateMutability":"view","type":"function"},{"inputs":[],"name":"ecoPointsRate","outputs":[{"internalType":"uint256","name":"","type":"uint256"}],"stateMutability":"view","type":"function"},{"inputs":[],"name":"energyToken","outputs":[{"internalType":"contract SunGridEnergyToken","name":"","type":"address"}],"stateMutability":"view","type":"function"},{"inputs":[{"internalType":"address","name":"user","type":"address"}],"name":"getUserStats","outputs":[{"components":[{"internalType":"uint256","name":"totalEnergyProduced","type":"uint256"},{"internalType":"uint256","name":"totalEnergyTraded","type":"uint256"},{"internalType":"uint256","name":"carbonCredits","type":"uint256"},{"internalType":"uint256","name":"ecoPoints","type":"uint256"},{"internalType":"uint256","name":"lastRewardClaim","type":"uint256"}],"internalType":"struct SunGridRewards.UserStats","name":"","type":"tuple"}],"stateMutability":"view","type":"function"},{"inputs":[],"name":"marketplace","outputs":[{"internalType":"contract SunGridMarketplace","name":"","type":"address"}],"stateMutability":"view","type":"function"},{"inputs":[],"name":"owner","outputs":[{"internalType":"address","name":"","type":"address"}],"stateMutability":"view","type":"function"},{"inputs":[{"internalType":"address","name":"producer","type":"address"},{"internalType":"uint256","name":"kWhAmount","type":"uint256"}],"name":"recordEnergyProduction","outputs":[],"stateMutability":"nonpayable","type":"function"},{"inputs":[{"internalType":"address","name":"seller","type":"address"},{"internalType":"address","name":"buyer","type":"address"},{"internalType":"uint256","name":"kWhAmount","type":"uint256"}],"name":"recordTrade","outputs":[],"stateMutability":"nonpayable","type":"function"},{"inputs":[{"internalType":"address","name":"newOwner","type":"address"}],"name":"transferOwnership","outputs":[],"stateMutability":"nonpayable","type":"function"},{"inputs":[{"internalType":"uint256","name":"newCarbonRate","type":"uint256"},{"internalType":"uint256","name":"newEcoRate","type":"uint256"}],"name":"updateRewardRates","outputs":[],"stateMutability":"nonpayable","type":"function"},{"inputs":[{"internalType":"address","name":"","type":"address"}],"name":"userStats","outputs":[{"internalType":"uint256","name":"totalEnergyProduced","type":"uint256"},{"internalType":"uint256","name":"totalEnergyTraded","type":"uint256"},{"internalType":"uint256","name":"carbonCredits","type":"uint256"},{"internalType":"uint256","name":"ecoPoints","type":"uint256"},{"internalType":"uint256","name":"lastRewardClaim","type":"uint256"}],"stateMutability":"view","type":"function"}],"evm":{"bytecode":{"linkReferences":{},"object":"6080346100c257601f61076938819003918201601f19168301916001600160401b038311848410176100c75780849260409485528339810103126100c257610052602061004b836100dd565b92016100dd565b6001600455600a60055560018060a01b03908160018060a01b0319931683600054161760005516816001541617600155339060025416176002556040513360007f8be0079c531659141344cd1fd0a4f28419497f9722a3daafe3b4186f6b6457e08180a361067790816100f28239f35b600080fd5b634e487b7160e01b600052604160045260246000fd5b51906001600160a01b03821682036100c25756fe6040608081526004908136101561001557600080fd5b600091823560e01c806310fce2851461056157806320b4bb77146105425780634e43603a146104985780634ec7fb81146104705780635786ed071461036c57806364e6a3a41461028c57806371e409251461022a5780638a65d874146101c85780638da5cb5b1461019f578063abc8c7af14610172578063f2fde38b146100c55763fd0223c5146100a557600080fd5b346100c157826003193601126100c15760209250549051908152f35b8280fd5b50346100c15760203660031901126100c1576100df610594565b6002546001600160a01b038082169391926100fb3386146105af565b1693841561013b5750506001600160a01b03191682176002557f8be0079c531659141344cd1fd0a4f28419497f9722a3daafe3b4186f6b6457e08380a380f35b906020606492519162461bcd60e51b8352820152601160248201527024b73b30b634b2103732bb9037bbb732b960791b6044820152fd5b50503461019b578160031936011261019b5760015490516001600160a01b039091168152602090f35b5080fd5b50503461019b578160031936011261019b5760025490516001600160a01b039091168152602090f35b5090346100c15760203660031901126100c15760a09281906001600160a01b036101f0610594565b1681526003602052208054926001820154926002830154916003840154930154938151958652602086015284015260608301526080820152f35b5091903461019b57602036600319011261019b576001600160a01b0361024e610594565b168252600360205280822054916101f492838102938185041490151715610279576020838351908152f35b634e487b7160e01b815260118452602490fd5b5090346100c157806003193601126100c1576102a6610594565b8354602435936001600160a01b03929183163303610333575090600a91169283855260036020528285206102db8282546105e8565b90550490816102e8578380f35b7ffb734c7986453c82477e06d932687aa0fa463124eafe9a84552d34ae518e3fca91602091848652600383526002818720016103258382546105e8565b905551908152a23880808380f35b606490602085519162461bcd60e51b8352820152601360248201527213db9b1e481d1bdad95b8818dbdb9d1c9858dd606a1b6044820152fd5b5090346100c15760603660031901126100c157610387610594565b906001600160a01b036024358181160361046c57604435928160015416330361043657169283855260036020526001828620016103c58482546105e8565b90556005549283810293818504149015171561042357507f8c5f60add7f68604b507d6a992213907f6bf291d5484ce1b3cace0405ff8e3a491602091848652600383526003818720016104198382546105e8565b905551908152a280f35b634e487b7160e01b855260119052602484fd5b825162461bcd60e51b8152602081870152601060248201526f4f6e6c79206d61726b6574706c61636560801b6044820152606490fd5b8480fd5b50503461019b578160031936011261019b57905490516001600160a01b039091168152602090f35b5090346100c15760203660031901126100c1578060a0936104b7610594565b8160806104c261060b565b82815282602082015282868201528260608201520152600180871b031681526003602052206104ef61060b565b918154938484526001830154602085019081526080600285015492848701938452600386015495606088019687520154950194855282519586525160208601525190840152516060830152516080820152f35b50503461019b578160031936011261019b576020906005549051908152f35b5090346100c15736600319011261019b5761058760018060a01b036002541633146105af565b8035905560243560055580f35b600435906001600160a01b03821682036105aa57565b600080fd5b156105b657565b60405162461bcd60e51b815260206004820152600a60248201526927b7363c9037bbb732b960b11b6044820152606490fd5b919082018092116105f557565b634e487b7160e01b600052601160045260246000fd5b6040519060a0820182811067ffffffffffffffff82111761062b57604052565b634e487b7160e01b600052604160045260246000fdfea2646970667358221220a0b718b5b22d8d42f21cdbaff658d8f6d3d05c14238671fb5532d978738b671564736f6c63430008140033","opcodes":"PUSH1 0x80 CALLVALUE PUSH2 0xC2 JUMPI PUSH1 0x1F PUSH2 0x769 CODESIZE DUP2 SWAP1 SUB SWAP2 DUP3 ADD PUSH1 0x1F NOT AND DUP4 ADD SWAP2 PUSH1 0x1 PUSH1 0x1 PUSH1 0x40 SHL SUB DUP4 GT DUP5 DUP5 LT OR PUSH2 0xC7 JUMPI DUP1 DUP5 SWAP3 PUSH1 0x40 SWAP5 DUP6 MSTORE DUP4 CODECOPY DUP2 ADD SUB SLT PUSH2 0xC2 JUMPI PUSH2 0x52 PUSH1 0x20 PUSH2 0x4B DUP4 PUSH2 0xDD JUMP JUMPDEST SWAP3 ADD PUSH2 0xDD JUMP JUMPDEST PUSH1 0x1 PUSH1 0x4 SSTORE PUSH1 0xA PUSH1 0x5 SSTORE PUSH1 0x1 DUP1 PUSH1 0xA0 SHL SUB SWAP1 DUP2 PUSH1 0x1 DUP1 PUSH1 0xA0 SHL SUB NOT SWAP4 AND DUP4 PUSH1 0x0 SLOAD AND OR PUSH1 0x0 SSTORE AND DUP2 PUSH1 0x1 SLOAD AND OR PUSH1 0x1 SSTORE CALLER SWAP1 PUSH1 0x2 SLOAD AND OR PUSH1 0x2 SSTORE PUSH1 0x40 MLOAD CALLER PUSH1 0x0 PUSH32 0x8BE0079C531659141344CD1FD0A4F28419497F9722A3DAAFE3B4186F6B6457E0 DUP2 DUP1 LOG3 PUSH2 0x677 SWAP1 DUP2 PUSH2 0xF2 DUP3 CODECOPY RETURN JUMPDEST PUSH1 0x0 DUP1 REVERT JUMPDEST PUSH4 0x4E487B71 PUSH1 0xE0 SHL PUSH1 0x0 MSTORE PUSH1 0x41 PUSH1 0x4 MSTORE PUSH1 0x24 PUSH1 0x0 REVERT JUMPDEST MLOAD SWAP1 PUSH1 0x1 PUSH1 0x1 PUSH1 0xA0 SHL SUB DUP3 AND DUP3 SUB PUSH2 0xC2 JUMPI JUMP INVALID PUSH1 0x40 PUSH1 0x80 DUP2 MSTORE PUSH1 0x4 SWAP1 DUP2 CALLDATASIZE LT ISZERO PUSH2 0x15 JUMPI PUSH1 0x0 DUP1 REVERT JUMPDEST PUSH1 0x0 SWAP2 DUP3 CALLDATALOAD PUSH1 0xE0 SHR DUP1 PUSH4 0x10FCE285 EQ PUSH2 0x561 JUMPI DUP1 PUSH4 0x20B4BB77 EQ PUSH2 0x542 JUMPI DUP1 PUSH4 0x4E43603A EQ PUSH2 0x498 JUMPI DUP1 PUSH4 0x4EC7FB81 EQ PUSH2 0x470 JUMPI DUP1 PUSH4 0x5786ED07 EQ PUSH2 0x36C JUMPI DUP1 PUSH4 0x64E6A3A4 EQ PUSH2 0x28C JUMPI DUP1 PUSH4 0x71E40925 EQ PUSH2 0x22A JUMPI DUP1 PUSH4 0x8A65D874 EQ PUSH2 0x1C8 JUMPI DUP1 PUSH4 0x8DA5CB5B EQ PUSH2 0x19F JUMPI DUP1 PUSH4 0xABC8C7AF EQ PUSH2 0x172 JUMPI DUP1 PUSH4 0xF2FDE38B EQ PUSH2 0xC5 JUMPI PUSH4 0xFD0223C5 EQ PUSH2 0xA5 JUMPI PUSH1 0x0 DUP1 REVERT JUMPDEST CALLVALUE PUSH2 0xC1 JUMPI DUP3 PUSH1 0x3 NOT CALLDATASIZE ADD SLT PUSH2 0xC1 JUMPI PUSH1 0x20 SWAP3 POP SLOAD SWAP1 MLOAD SWAP1 DUP2 MSTORE RETURN JUMPDEST DUP3 DUP1 REVERT JUMPDEST POP CALLVALUE PUSH2 0xC1 JUMPI PUSH1 0x20 CALLDATASIZE PUSH1 0x3 NOT ADD SLT PUSH2 0xC1 JUMPI PUSH2 0xDF PUSH2 0x594 JUMP JUMPDEST PUSH1 0x2 SLOAD PUSH1 0x1 PUSH1 0x1 PUSH1 0xA0 SHL SUB DUP1 DUP3 AND SWAP4 SWAP2 SWAP3 PUSH2 0xFB CALLER DUP7 EQ PUSH2 0x5AF JUMP JUMPDEST AND SWAP4 DUP5 ISZERO PUSH2 0x13B JUMPI POP POP PUSH1 0x1 PUSH1 0x1 PUSH1 0xA0 SHL SUB NOT AND DUP3 OR PUSH1 0x2 SSTORE PUSH32 0x8BE0079C531659141344CD1FD0A4F28419497F9722A3DAAFE3B4186F6B6457E0 DUP4 DUP1 LOG3 DUP1 RETURN JUMPDEST SWAP1 PUSH1 0x20 PUSH1 0x64 SWAP3 MLOAD SWAP2 PUSH3 0x461BCD PUSH1 0xE5 SHL DUP4 MSTORE DUP3 ADD MSTORE PUSH1 0x11 PUSH1 0x24 DUP3 ADD MSTORE PUSH17 0x24B73B30B634B2103732BB9037BBB732B9 PUSH1 0x79 SHL PUSH1 0x44 DUP3 ADD MSTORE REVERT JUMPDEST POP POP CALLVALUE PUSH2 0x19B JUMPI DUP2 PUSH1 0x3 NOT CALLDATASIZE ADD SLT PUSH2 0x19B JUMPI PUSH1 0x1 SLOAD SWAP1 MLOAD PUSH1 0x1 PUSH1 0x1 PUSH1 0xA0 SHL SUB SWAP1 SWAP2 AND DUP2 MSTORE PUSH1 0x20 SWAP1 RETURN JUMPDEST POP DUP1 REVERT JUMPDEST POP POP CALLVALUE PUSH2 0x19B JUMPI DUP2 PUSH1 0x3 NOT CALLDATASIZE ADD SLT PUSH2 0x19B JUMPI PUSH1 0x2 SLOAD SWAP1 MLOAD PUSH1 0x1 PUSH1 0x1 PUSH1 0xA0 SHL SUB SWAP1 SWAP2 AND DUP2 MSTORE PUSH1 0x20 SWAP1 RETURN JUMPDEST POP SWAP1 CALLVALUE PUSH2 0xC1 JUMPI PUSH1 0x20 CALLDATASIZE PUSH1 0x3 NOT ADD SLT PUSH2 0xC1 JUMPI PUSH1 0xA0 SWAP3 DUP2 SWAP1 PUSH1 0x1 PUSH1 0x1 PUSH1 0xA0 SHL SUB PUSH2 0x1F0 PUSH2 0x594 JUMP JUMPDEST AND DUP2 MSTORE PUSH1 0x3 PUSH1 0x20 MSTORE KECCAK256 DUP1 SLOAD SWAP3 PUSH1 0x1 DUP3 ADD SLOAD SWAP3 PUSH1 0x2 DUP4 ADD SLOAD SWAP2 PUSH1 0x3 DUP5 ADD SLOAD SWAP4 ADD SLOAD SWAP4 DUP2 MLOAD SWAP6 DUP7 MSTORE PUSH1 0x20 DUP7 ADD MSTORE DUP5 ADD MSTORE PUSH1 0x60 DUP4 ADD MSTORE PUSH1 0x80 DUP3 ADD MSTORE RETURN JUMPDEST POP SWAP2 SWAP1 CALLVALUE PUSH2 0x19B JUMPI PUSH1 0x20 CALLDATASIZE PUSH1 0x3 NOT ADD SLT PUSH2 0x19B JUMPI PUSH1 0x1 PUSH1 0x1 PUSH1 0xA0 SHL SUB PUSH2 0x24E PUSH2 0x594 JUMP JUMPDEST AND DUP3 MSTORE PUSH1 0x3 PUSH1 0x20 MSTORE DUP1 DUP3 KECCAK256 SLOAD SWAP2 PUSH2 0x1F4 SWAP3 DUP4 DUP2 MUL SWAP4 DUP2 DUP6 DIV EQ SWAP1 ISZERO OR ISZERO PUSH2 0x279 JUMPI PUSH1 0x20 DUP4 DUP4 MLOAD SWAP1 DUP2 MSTORE RETURN JUMPDEST PUSH4 0x4E487B71 PUSH1 0xE0 SHL DUP2 MSTORE PUSH1 0x11 DUP5 MSTORE PUSH1 0x24 SWAP1 REVERT JUMPDEST POP SWAP1 CALLVALUE PUSH2 0xC1 JUMPI DUP1 PUSH1 0x3 NOT CALLDATASIZE ADD SLT PUSH2 0xC1 JUMPI PUSH2 0x2A6 PUSH2 0x594 JUMP JUMPDEST DUP4 SLOAD PUSH1 0x24 CALLDATALOAD SWAP4 PUSH1 0x1 PUSH1 0x1 PUSH1 0xA0 SHL SUB SWAP3 SWAP2 DUP4 AND CALLER SUB PUSH2 0x333 JUMPI POP SWAP1 PUSH1 0xA SWAP2 AND SWAP3 DUP4 DUP6 MSTORE PUSH1 0x3 PUSH1 0x20 MSTORE DUP3 DUP6 KECCAK256 PUSH2 0x2DB DUP3 DUP3 SLOAD PUSH2 0x5E8 JUMP JUMPDEST SWAP1 SSTORE DIV SWAP1 DUP2 PUSH2 0x2E8 JUMPI DUP4 DUP1 RETURN JUMPDEST PUSH32 0xFB734C7986453C82477E06D932687AA0FA463124EAFE9A84552D34AE518E3FCA SWAP2 PUSH1 0x20 SWAP2 DUP5 DUP7 MSTORE PUSH1 0x3 DUP4 MSTORE PUSH1 0x2 DUP2 DUP8 KECCAK256 ADD PUSH2 0x325 DUP4 DUP3 SLOAD PUSH2 0x5E8 JUMP JUMPDEST SWAP1 SSTORE MLOAD SWAP1 DUP2 MSTORE LOG2 CODESIZE DUP1 DUP1 DUP4 DUP1 RETURN JUMPDEST PUSH1 0x64 SWAP1 PUSH1 0x20 DUP6 MLOAD SWAP2 PUSH3 0x461BCD PUSH1 0xE5 SHL DUP4 MSTORE DUP3 ADD MSTORE PUSH1 0x13 PUSH1 0x24 DUP3 ADD MSTORE PUSH19 0x13DB9B1E481D1BDAD95B8818DBDB9D1C9858DD PUSH1 0x6A SHL PUSH1 0x44 DUP3 ADD MSTORE REVERT JUMPDEST POP SWAP1 CALLVALUE PUSH2 0xC1 JUMPI PUSH1 0x60 CALLDATASIZE PUSH1 0x3 NOT ADD SLT PUSH2 0xC1 JUMPI PUSH2 0x387 PUSH2 0x594 JUMP JUMPDEST SWAP1 PUSH1 0x1 PUSH1 0x1 PUSH1 0xA0 SHL SUB PUSH1 0x24 CALLDATALOAD DUP2 DUP2 AND SUB PUSH2 0x46C JUMPI PUSH1 0x44 CALLDATALOAD SWAP3 DUP2 PUSH1 0x1 SLOAD AND CALLER SUB PUSH2 0x436 JUMPI AND SWAP3 DUP4 DUP6 MSTORE PUSH1 0x3 PUSH1 0x20 MSTORE PUSH1 0x1 DUP3 DUP7 KECCAK256 ADD PUSH2 0x3C5 DUP5 DUP3 SLOAD PUSH2 0x5E8 JUMP JUMPDEST SWAP1 SSTORE PUSH1 0x5 SLOAD SWAP3 DUP4 DUP2 MUL SWAP4 DUP2 DUP6 DIV EQ SWAP1 ISZERO OR ISZERO PUSH2 0x423 JUMPI POP PUSH32 0x8C5F60ADD7F68604B507D6A992213907F6BF291D5484CE1B3CACE0405FF8E3A4 SWAP2 PUSH1 0x20 SWAP2 DUP5 DUP7 MSTORE PUSH1 0x3 DUP4 MSTORE PUSH1 0x3 DUP2 DUP8 KECCAK256 ADD PUSH2 0x419 DUP4 DUP3 SLOAD PUSH2 0x5E8 JUMP JUMPDEST SWAP1 SSTORE MLOAD SWAP1 DUP2 MSTORE LOG2 DUP1 RETURN JUMPDEST PUSH4 0x4E487B71 PUSH1 0xE0 SHL DUP6 MSTORE PUSH1 0x11 SWAP1 MSTORE PUSH1 0x24 DUP5 REVERT JUMPDEST DUP3 MLOAD PUSH3 0x461BCD PUSH1 0xE5 SHL DUP2 MSTORE PUSH1 0x20 DUP2 DUP8 ADD MSTORE PUSH1 0x10 PUSH1 0x24 DUP3 ADD MSTORE PUSH16 0x4F6E6C79206D61726B6574706C616365 PUSH1 0x80 SHL PUSH1 0x44 DUP3 ADD MSTORE PUSH1 0x64 SWAP1 REVERT JUMPDEST DUP5 DUP1 REVERT JUMPDEST POP POP CALLVALUE PUSH2 0x19B JUMPI DUP2 PUSH1 0x3 NOT CALLDATASIZE ADD SLT PUSH2 0x19B JUMPI SWAP1 SLOAD SWAP1 MLOAD PUSH1 0x1 PUSH1 0x1 PUSH1 0xA0 SHL SUB SWAP1 SWAP2 AND DUP2 MSTORE PUSH1 0x20 SWAP1 RETURN JUMPDEST POP SWAP1 CALLVALUE PUSH2 0xC1 JUMPI PUSH1 0x20 CALLDATASIZE PUSH1 0x3 NOT ADD SLT PUSH2 0xC1 JUMPI DUP1 PUSH1 0xA0 SWAP4 PUSH2 0x4B7 PUSH2 0x594 JUMP JUMPDEST DUP2 PUSH1 0x80 PUSH2 0x4C2 PUSH2 0x60B JUMP JUMPDEST DUP3 DUP2 MSTORE DUP3 PUSH1 0x20 DUP3 ADD MSTORE DUP3 DUP7 DUP3 ADD MSTORE DUP3 PUSH1 0x60 DUP3 ADD MSTORE ADD MSTORE PUSH1 0x1 DUP1 DUP8 SHL SUB AND DUP2 MSTORE PUSH1 0x3 PUSH1 0x20 MSTORE KECCAK256 PUSH2 0x4EF PUSH2 0x60B JUMP JUMPDEST SWAP2 DUP2 SLOAD SWAP4 DUP5 DUP5 MSTORE PUSH1 0x1 DUP4 ADD SLOAD PUSH1 0x20 DUP6 ADD SWAP1 DUP2 MSTORE PUSH1 0x80 PUSH1 0x2 DUP6 ADD SLOAD SWAP3 DUP5 DUP8 ADD SWAP4 DUP5 MSTORE PUSH1 0x3 DUP7 ADD SLOAD SWAP6 PUSH1 0x60 DUP9 ADD SWAP7 DUP8 MSTORE ADD SLOAD SWAP6 ADD SWAP5 DUP6 MSTORE DUP3 MLOAD SWAP6 DUP7 MSTORE MLOAD PUSH1 0x20 DUP7 ADD MSTORE MLOAD SWAP1 DUP5 ADD MSTORE MLOAD PUSH1 0x60 DUP4 ADD MSTORE MLOAD PUSH1 0x80 DUP3 ADD MSTORE RETURN JUMPDEST POP POP CALLVALUE PUSH2 0x19B JUMPI DUP2 PUSH1 0x3 NOT CALLDATASIZE ADD SLT PUSH2 0x19B JUMPI PUSH1 0x20 SWAP1 PUSH1 0x5 SLOAD SWAP1 MLOAD SWAP1 DUP2 MSTORE RETURN JUMPDEST POP SWAP1 CALLVALUE PUSH2 0xC1 JUMPI CALLDATASIZE PUSH1 0x3 NOT ADD SLT PUSH2 0x19B JUMPI PUSH2 0x587 PUSH1 0x1 DUP1 PUSH1 0xA0 SHL SUB PUSH1 0x2 SLOAD AND CALLER EQ PUSH2 0x5AF JUMP JUMPDEST DUP1 CALLDATALOAD SWAP1 SSTORE PUSH1 0x24 CALLDATALOAD PUSH1 0x5 SSTORE DUP1 RETURN JUMPDEST PUSH1 0x4 CALLDATALOAD SWAP1 PUSH1 0x1 PUSH1 0x1 PUSH1 0xA0 SHL SUB DUP3 AND DUP3 SUB PUSH2 0x5AA JUMPI JUMP JUMPDEST PUSH1 0x0 DUP1 REVERT JUMPDEST ISZERO PUSH2 0x5B6 JUMPI JUMP JUMPDEST PUSH1 0x40 MLOAD PUSH3 0x461BCD PUSH1 0xE5 SHL DUP2 MSTORE PUSH1 0x20 PUSH1 0x4 DUP3 ADD MSTORE PUSH1 0xA PUSH1 0x24 DUP3 ADD MSTORE PUSH10 0x27B7363C9037BBB732B9 PUSH1 0xB1 SHL PUSH1 0x44 DUP3 ADD MSTORE PUSH1 0x64 SWAP1 REVERT JUMPDEST SWAP2 SWAP1 DUP3 ADD DUP1 SWAP3 GT PUSH2 0x5F5 JUMPI JUMP JUMPDEST PUSH4 0x4E487B71 PUSH1 0xE0 SHL PUSH1 0x0 MSTORE PUSH1 0x11 PUSH1 0x4 MSTORE PUSH1 0x24 PUSH1 0x0 REVERT JUMPDEST PUSH1 0x40 MLOAD SWAP1 PUSH1 0xA0 DUP3 ADD DUP3 DUP2 LT PUSH8 0xFFFFFFFFFFFFFFFF DUP3 GT OR PUSH2 0x62B JUMPI PUSH1 0x40 MSTORE JUMP JUMPDEST PUSH4 0x4E487B71 PUSH1 0xE0 SHL PUSH1 0x0 MSTORE PUSH1 0x41 PUSH1 0x4 MSTORE PUSH1 0x24 PUSH1 0x0 REVERT INVALID LOG2 PUSH5 0x6970667358 0x22 SLT KECCAK256 LOG0 0xB7 XOR 0xB5 0xB2 0x2D DUP14 TIMESTAMP CALLCODE SHR 0xDB 0xAF 0xF6 PC 0xD8 0xF6 0xD3 0xD0 0x5C EQ 0x23 DUP7 PUSH18 0xFB5532D978738B671564736F6C6343000814 STOP CALLER "},"methodIdentifiers":{"calculateCarbonOffset(address)":"71e40925","carbonCreditRate()":"fd0223c5","ecoPointsRate()":"20b4bb77","energyToken()":"4ec7fb81","getUserStats(address)":"4e43603a","marketplace()":"abc8c7af","owner()":"8da5cb5b","recordEnergyProduction(address,uint256)":"64e6a3a4","recordTrade(address,address,uint256)":"5786ed07","transferOwnership(address)":"f2fde38b","updateRewardRates(uint256,uint256)":"10fce285","userStats(address)":"8a65d874"}}}}}