{
  "_format": "hh-sol-artifact-1",
  "contractName": "SunGridMarketplace",
  "sourceName": "contracts/Sungrid.sol",
  "abi": [
    {
      "inputs": [
        {
          "internalType": "address",
          "name": "_energyTokenAddress",
          "type": "address"
        }
      ],
      "stateMutability": "nonpayable",
      "type": "constructor"
    },
    {
      "anonymous": false,
      "inputs": [
        {
          "indexed": true,
          "internalType": "uint256",
          "name": "listingId",
          "type": "uint256"
        }
      ],
      "name": "ListingCancelled",
      "type": "event"
    },
    {
      "anonymous": false,
      "inputs": [
        {
          "indexed": true,
          "internalType": "uint256",
          "name": "listingId",
          "type": "uint256"
        },
        {
          "indexed": true,
          "internalType": "address",
          "name": "seller",
          "type": "address"
        },
        {
          "indexed": false,
          "internalType": "uint256",
          "name": "tokenAmount",
          "type": "uint256"
        },
        {
          "indexed": false,
          "internalType": "uint256",
          "name": "pricePerKwh",
          "type": "uint256"
        }
      ],
      "name": "ListingCreated",
      "type": "event"
    },
    {
      "anonymous": false,
      "inputs": [
        {
          "indexed": true,
          "internalType": "address",
          "name": "previousOwner",
          "type": "address"
        },
        {
          "indexed": true,
          "internalType": "address",
          "name": "newOwner",
          "type": "address"
        }
      ],
      "name": "OwnershipTransferred",
      "type": "event"
    },
    {
      "anonymous": false,
      "inputs": [
        {
          "indexed": false,
          "internalType": "uint256",
          "name": "newFee",
          "type": "uint256"
        }
      ],
      "name": "PlatformFeeUpdated",
      "type": "event"
    },
    {
      "anonymous": false,
      "inputs": [
        {
          "indexed": true,
          "internalType": "uint256",
          "name": "tradeId",
          "type": "uint256"
        },
        {
          "indexed": true,
          "internalType": "uint256",
          "name": "listingId",
          "type": "uint256"
        },
        {
          "indexed": true,
          "internalType": "address",
          "name": "buyer",
          "type": "address"
        },
        {
          "indexed": false,
          "internalType": "address",
          "name": "seller",
          "type": "address"
        },
        {
          "indexed": false,
          "internalType": "uint256",
          "name": "amount",
          "type": "uint256"
        },
        {
          "indexed": false,
          "internalType": "uint256",
          "name": "priceInHBAR",
          "type": "uint256"
        }
      ],
      "name": "TradeExecuted",
      "type": "event"
    },
    {
      "inputs": [
        {
          "internalType": "uint256",
          "name": "listingId",
          "type": "uint256"
        },
        {
          "internalType": "bytes32",
          "name": "hcsRecordId",
          "type": "bytes32"
        }
      ],
      "name": "buyEnergy",
      "outputs": [
        {
          "internalType": "uint256",
          "name": "",
          "type": "uint256"
        }
      ],
      "stateMutability": "payable",
      "type": "function"
    },
    {
      "inputs": [
        {
          "internalType": "uint256",
          "name": "listingId",
          "type": "uint256"
        }
      ],
      "name": "calculatePrice",
      "outputs": [
        {
          "internalType": "uint256",
          "name": "totalPrice",
          "type": "uint256"
        },
        {
          "internalType": "uint256",
          "name": "platformFee",
          "type": "uint256"
        },
        {
          "internalType": "uint256",
          "name": "sellerAmount",
          "type": "uint256"
        }
      ],
      "stateMutability": "view",
      "type": "function"
    },
    {
      "inputs": [
        {
          "internalType": "uint256",
          "name": "listingId",
          "type": "uint256"
        }
      ],
      "name": "cancelListing",
      "outputs": [],
      "stateMutability": "nonpayable",
      "type": "function"
    },
    {
      "inputs": [
        {
          "internalType": "uint256",
          "name": "tokenAmount",
          "type": "uint256"
        },
        {
          "internalType": "uint256",
          "name": "pricePerKwh",
          "type": "uint256"
        }
      ],
      "name": "createListing",
      "outputs": [
        {
          "internalType": "uint256",
          "name": "",
          "type": "uint256"
        }
      ],
      "stateMutability": "nonpayable",
      "type": "function"
    },
    {
      "inputs": [],
      "name": "energyToken",
      "outputs": [
        {
          "internalType": "contract SunGridEnergyToken",
          "name": "",
          "type": "address"
        }
      ],
      "stateMutability": "view",
      "type": "function"
    },
    {
      "inputs": [
        {
          "internalType": "uint256",
          "name": "listingId",
          "type": "uint256"
        }
      ],
      "name": "getActiveListing",
      "outputs": [
        {
          "components": [
            {
              "internalType": "uint256",
              "name": "listingId",
              "type": "uint256"
            },
            {
              "internalType": "address",
              "name": "seller",
              "type": "address"
            },
            {
              "internalType": "uint256",
              "name": "tokenAmount",
              "type": "uint256"
            },
            {
              "internalType": "uint256",
              "name": "pricePerKwh",
              "type": "uint256"
            },
            {
              "internalType": "enum SunGridMarketplace.ListingStatus",
              "name": "status",
              "type": "uint8"
            },
            {
              "internalType": "uint256",
              "name": "createdAt",
              "type": "uint256"
            }
          ],
          "internalType": "struct SunGridMarketplace.Listing",
          "name": "",
          "type": "tuple"
        }
      ],
      "stateMutability": "view",
      "type": "function"
    },
    {
      "inputs": [
        {
          "internalType": "uint256",
          "name": "tradeId",
          "type": "uint256"
        }
      ],
      "name": "getTrade",
      "outputs": [
        {
          "components": [
            {
              "internalType": "uint256",
              "name": "tradeId",
              "type": "uint256"
            },
            {
              "internalType": "uint256",
              "name": "listingId",
              "type": "uint256"
            },
            {
              "internalType": "address",
              "name": "buyer",
              "type": "address"
            },
            {
              "internalType": "address",
              "name": "seller",
              "type": "address"
            },
            {
              "internalType": "uint256",
              "name": "tokenAmount",
              "type": "uint256"
            },
            {
              "internalType": "uint256",
              "name": "totalPrice",
              "type": "uint256"
            },
            {
              "internalType": "uint256",
              "name": "timestamp",
              "type": "uint256"
            },
            {
              "internalType": "bytes32",
              "name": "hcsRecordId",
              "type": "bytes32"
            }
          ],
          "internalType": "struct SunGridMarketplace.Trade",
          "name": "",
          "type": "tuple"
        }
      ],
      "stateMutability": "view",
      "type": "function"
    },
    {
      "inputs": [],
      "name": "listingCounter",
      "outputs": [
        {
          "internalType": "uint256",
          "name": "",
          "type": "uint256"
        }
      ],
      "stateMutability": "view",
      "type": "function"
    },
    {
      "inputs": [
        {
          "internalType": "uint256",
          "name": "",
          "type": "uint256"
        }
      ],
      "name": "listings",
      "outputs": [
        {
          "internalType": "uint256",
          "name": "listingId",
          "type": "uint256"
        },
        {
          "internalType": "address",
          "name": "seller",
          "type": "address"
        },
        {
          "internalType": "uint256",
          "name": "tokenAmount",
          "type": "uint256"
        },
        {
          "internalType": "uint256",
          "name": "pricePerKwh",
          "type": "uint256"
        },
        {
          "internalType": "enum SunGridMarketplace.ListingStatus",
          "name": "status",
          "type": "uint8"
        },
        {
          "internalType": "uint256",
          "name": "createdAt",
          "type": "uint256"
        }
      ],
      "stateMutability": "view",
      "type": "function"
    },
    {
      "inputs": [],
      "name": "owner",
      "outputs": [
        {
          "internalType": "address",
          "name": "",
          "type": "address"
        }
      ],
      "stateMutability": "view",
      "type": "function"
    },
    {
      "inputs": [],
      "name": "pause",
      "outputs": [],
      "stateMutability": "nonpayable",
      "type": "function"
    },
    {
      "inputs": [],
      "name": "paused",
      "outputs": [
        {
          "internalType": "bool",
          "name": "",
          "type": "bool"
        }
      ],
      "stateMutability": "view",
      "type": "function"
    },
    {
      "inputs": [],
      "name": "platformFeePercent",
      "outputs": [
        {
          "internalType": "uint256",
          "name": "",
          "type": "uint256"
        }
      ],
      "stateMutability": "view",
      "type": "function"
    },
    {
      "inputs": [],
      "name": "tradeCounter",
      "outputs": [
        {
          "internalType": "uint256",
          "name": "",
          "type": "uint256"
        }
      ],
      "stateMutability": "view",
      "type": "function"
    },
    {
      "inputs": [
        {
          "internalType": "uint256",
          "name": "",
          "type": "uint256"
        }
      ],
      "name": "trades",
      "outputs": [
        {
          "internalType": "uint256",
          "name": "tradeId",
          "type": "uint256"
        },
        {
          "internalType": "uint256",
          "name": "listingId",
          "type": "uint256"
        },
        {
          "internalType": "address",
          "name": "buyer",
          "type": "address"
        },
        {
          "internalType": "address",
          "name": "seller",
          "type": "address"
        },
        {
          "internalType": "uint256",
          "name": "tokenAmount",
          "type": "uint256"
        },
        {
          "internalType": "uint256",
          "name": "totalPrice",
          "type": "uint256"
        },
        {
          "internalType": "uint256",
          "name": "timestamp",
          "type": "uint256"
        },
        {
          "internalType": "bytes32",
          "name": "hcsRecordId",
          "type": "bytes32"
        }
      ],
      "stateMutability": "view",
      "type": "function"
    },
    {
      "inputs": [
        {
          "internalType": "address",
          "name": "newOwner",
          "type": "address"
        }
      ],
      "name": "transferOwnership",
      "outputs": [],
      "stateMutability": "nonpayable",
      "type": "function"
    },
    {
      "inputs": [],
      "name": "unpause",
      "outputs": [],
      "stateMutability": "nonpayable",
      "type": "function"
    },
    {
      "inputs": [
        {
          "internalType": "uint256",
          "name": "newFeePercent",
          "type": "uint256"
        }
      ],
      "name": "updatePlatformFee",
      "outputs": [],
      "stateMutability": "nonpayable",
      "type": "function"
    },
    {
      "inputs": [],
      "name": "withdrawFees",
      "outputs": [],
      "stateMutability": "nonpayable",
      "type": "function"
    }
  ],
  "bytecode": "0x6080346100ad57601f6112b838819003918201601f19168301916001600160401b038311848410176100b2578084926020946040528339810103126100ad57516001600160a01b038116908190036100ad57601960035560018060a01b0319908160005416176000553390600154161760015560016007556040513360007f8be0079c531659141344cd1fd0a4f28419497f9722a3daafe3b4186f6b6457e08180a36111ef90816100c98239f35b600080fd5b634e487b7160e01b600052604160045260246000fdfe608060408181526004908136101561001657600080fd5b60009260e08435811c9182631030f05f14610ea6575081631299d7f014610ae55781631e6c598e14610a665781632db25e051461096857508063305a67a8146107c55780633f4ba83a14610790578063476343ee146106d65780634ec7fb81146106ae5780635c975abb14610687578063660d15b5146106685780636c2c9c7d146106495780638456cb591461060b5780638c639a85146105ec5780638da5cb5b146105bf578063a79123a914610368578063aa0b5988146102d2578063ae1042651461021b578063de74e57b146101ad5763f2fde38b146100f757600080fd5b346101a95760203660031901126101a9576001600160a01b03823581811693908490036101a55760015491821692610130843314610fa2565b841561016e5750506001600160a01b03191682176001557f8be0079c531659141344cd1fd0a4f28419497f9722a3daafe3b4186f6b6457e08380a380f35b906020606492519162461bcd60e51b8352820152601160248201527024b73b30b634b2103732bb9037bbb732b960791b6044820152fd5b8480fd5b8280fd5b50346101a95760203660031901126101a9576102148160c09484358152846020522080549360018060a01b0360018301541693600283015490600560ff60038601549486015416940154958151978852602088015286015260608501526080840190610f7f565b60a0820152f35b5090346101a95760203660031901126101a95780670de0b6b3a7640000836060956102a694358152836020522084516102538161101c565b8154815260018060a01b03600183015416602082015260a0600560028401549388840194855261029760ff6003830154988c8701998a5283015416608086016110cf565b01549101525104905190611159565b906127106102b660035484611159565b04906102c2828461116c565b9181519384526020840152820152f35b50346101a95760203660031901126101a9578135916102fc60018060a01b03600154163314610fa2565b6101f483116103375750816020917f45610d581145924dd7090a5017e5f2b1d6f42213bb2e95707ff86846bbfcb1ca9360035551908152a180f35b6020606492519162461bcd60e51b8352820152600c60248201526b08ccaca40e8dede40d0d2ced60a31b6044820152fd5b50346101a957806003193601126101a9578135602480359361039260ff60015460a01c1615610fdb565b821561057e57841561054457859060018060a01b0392838354168651906323b872dd60e01b8252338483015230838301528660448301528160648160209c8d945af190811561053a57849161050d575b50156104d3579087916103f66002546110aa565b93846002558751956104078761101c565b8587528487013381528988019089825260608901928c84528660808b0198868a5260a08c019a428c528752528b852099518a5560018a019151166bffffffffffffffffffffffff60a01b82541617905551600288015551600387015582860193519260038410156104c357505050906005929160ff801983541691161790555191015560025492825191825284820152827f12dc294b81a709d694b1337a350a12a00076c19a77a25aab67a5f0c07e0f164d833393a351908152f35b634e487b7160e01b825260219052fd5b855162461bcd60e51b815291820188905260159082015274151bdad95b881d1c985b9cd9995c8819985a5b1959605a1b6044820152606490fd5b61052d9150893d8b11610533575b610525818361106b565b81019061108d565b386103e2565b503d61051b565b87513d86823e3d90fd5b6016606492602086519362461bcd60e51b8552840152820152755072696365206d75737420626520706f73697469766560501b6044820152fd5b6017606492602086519362461bcd60e51b85528401528201527f416d6f756e74206d75737420626520706f7369746976650000000000000000006044820152fd5b8382346105e857816003193601126105e85760015490516001600160a01b039091168152602090f35b5080fd5b8382346105e857816003193601126105e8576020906003549051908152f35b8334610646578060031936011261064657600154610633336001600160a01b03831614610fa2565b60ff60a01b1916600160a01b1760015580f35b80fd5b8382346105e857816003193601126105e8576020906002549051908152f35b8382346105e857816003193601126105e8576020906006549051908152f35b8382346105e857816003193601126105e85760209060ff60015460a01c1690519015158152f35b8382346105e857816003193601126105e857905490516001600160a01b039091168152602090f35b50346101a957826003193601126101a9576001546001600160a01b03166106fe338214610fa2565b47908115610757578480809381935af1610716611179565b5015610720578280f35b906020606492519162461bcd60e51b8352820152601160248201527015da5d1a191c985dd85b0819985a5b1959607a1b6044820152fd5b825162461bcd60e51b815260208186015260136024820152724e6f206665657320746f20776974686472617760681b6044820152606490fd5b83346106465780600319360112610646576001546107b8336001600160a01b03831614610fa2565b60ff60a01b191660015580f35b5090346101a957602080600319360112610964578135926107eb600260075414156110db565b600260075583855282825280852060018101546001600160a01b03908116919033830361093057858201805460ff8116600381101561091d57928794926002809361083a610878999715611118565b60ff19161790558a54169101549189865180968195829463a9059cbb60e01b84528c840160209093929193604081019460018060a01b031681520152565b03925af19081156109135786916108f6575b50156108bf575050507f411aee90354c51b1b04cd563fcab2617142a9d50da19232d888547c8a1b7fd8a8280a2600160075580f35b5162461bcd60e51b8152918201526013602482015272151bdad95b881c995d1d5c9b8819985a5b1959606a1b604482015260649150fd5b61090d9150833d851161053357610525818361106b565b3861088a565b82513d88823e3d90fd5b634e487b7160e01b8b526021895260248bfd5b835162461bcd60e51b8152808701869052600e60248201526d2737ba103a34329039b2b63632b960911b6044820152606490fd5b8380fd5b91929050346109645760203660031901126109645782846101009584835161098f8161104e565b82815282602082015282858201528260608201528260808201528260a08201528260c08201520152823581526005602052208351916109cd8361104e565b8154948584526001830154916020850192835260018060a01b0390816002860154169280870193845282806003880154169260608901938452870154946080890195865260058801549660a08a019788528a600760068b01549a60c08d019b8c5201549a01998a5283519b8c525160208c0152511690890152511660608701525160808601525160a08501525160c08401525190820152f35b84939150346109645760203660031901126109645782610100948335815260056020522080549360018201549360018060a01b03908160028501541691600385015416908401549160058501549360076006870154960154978151998a5260208a01528801526060870152608086015260a085015260c0840152820152f35b82859392506003193601126101a9578335610b05600260075414156110db565b6002600755610b1c60ff60015460a01c1615610fdb565b808452602094808652838520928184019160ff8354166003811015610e9357610b459015611118565b600185019660018060a01b03928389541694853314610e5757610b7d60028901986003670de0b6b3a76400008b540491015490611159565b95610b97612710610b906003548a611159565b048861116c565b90873410610e14578480809381935af1610baf611179565b5015610dd157853411610d7b575b825488548a5163a9059cbb60e01b8152338782019081526020810192909252918d91839189169082908890829060400103925af1908115610d71578491610d54575b5015610d1157856005946007948a8d958f958e8d91600160ff198254161790558b610c2b6006546110aa565b998a600655541693549481519b8c99610c438b61104e565b8b8b52808b01948552838b019533875260608c0197885260808c0198895260a08c019a8b5260c08c019b428d52019b6024358d528352522099518a555160018a01558960028a01915116906bffffffffffffffffffffffff60a01b91828254161790558960038a0192511690825416179055519086015551600585015551600684015551910155600654955416925484519384528684015283830152837f15e0d41a04dd94271eba462c33812ee3d36a08eddcf7e4cff32f9ef872dea02e60603394a4600160075551908152f35b885162461bcd60e51b81528085018c9052601e60248201527f546f6b656e207472616e7366657220746f206275796572206661696c656400006044820152606490fd5b610d6b91508c8d3d1061053357610525818361106b565b8c610bff565b8a513d86823e3d90fd5b82808080610d898a3461116c565b335af1610d94611179565b50610bbd57885162461bcd60e51b81528085018c9052601260248201527112109054881c99599d5b990819985a5b195960721b6044820152606490fd5b885162461bcd60e51b81528085018c9052601d60248201527f48424152207061796d656e7420746f2073656c6c6572206661696c65640000006044820152606490fd5b8a5162461bcd60e51b81528087018e9052601960248201527f496e73756666696369656e742048424152207061796d656e74000000000000006044820152606490fd5b885162461bcd60e51b81528085018c9052601660248201527543616e6e6f7420627579206f776e206c697374696e6760501b6044820152606490fd5b634e487b7160e01b885260218252602488fd5b9150503461096457602036600319011261096457818460c09560a084610ece610f779661101c565b82815282602082015282858201528260608201528260808201520152843581528460205220825193610eff8561101c565b8154855260018060a01b0393846001840154169460208701958652600284015490828801918252600560ff60038701549560608b019687528701541695610f4a60808b0197886110cf565b01549660a08901978852835198518952511660208801525190860152516060850152516080840190610f7f565b5160a0820152f35b906003821015610f8c5752565b634e487b7160e01b600052602160045260246000fd5b15610fa957565b60405162461bcd60e51b815260206004820152600a60248201526927b7363c9037bbb732b960b11b6044820152606490fd5b15610fe257565b60405162461bcd60e51b815260206004820152601260248201527110dbdb9d1c9858dd081a5cc81c185d5cd95960721b6044820152606490fd5b60c0810190811067ffffffffffffffff82111761103857604052565b634e487b7160e01b600052604160045260246000fd5b610100810190811067ffffffffffffffff82111761103857604052565b90601f8019910116810190811067ffffffffffffffff82111761103857604052565b908160209103126110a5575180151581036110a55790565b600080fd5b60001981146110b95760010190565b634e487b7160e01b600052601160045260246000fd5b6003821015610f8c5752565b156110e257565b60405162461bcd60e51b815260206004820152600e60248201526d1499595b9d1c985b9d0818d85b1b60921b6044820152606490fd5b1561111f57565b60405162461bcd60e51b81526020600482015260126024820152714c697374696e67206e6f742061637469766560701b6044820152606490fd5b818102929181159184041417156110b957565b919082039182116110b957565b3d156111b4573d9067ffffffffffffffff821161103857604051916111a8601f8201601f19166020018461106b565b82523d6000602084013e565b60609056fea264697066735822122018dbee68b1324af74649f5113804865bb5e06bfe005b34d58398e43561f533db64736f6c63430008140033",
  "linkReferences": {},
  "deployedLinkReferences": {}
}