{
  "_format": "hh-sol-artifact-1",
  "contractName": "SunGridEnergyToken",
  "sourceName": "contracts/Sungrid.sol",
  "abi": [
    {
      "inputs": [],
      "stateMutability": "nonpayable",
      "type": "constructor"
    },
    {
      "anonymous": false,
      "inputs": [
        {
          "indexed": true,
          "internalType": "address",
          "name": "owner",
          "type": "address"
        },
        {
          "indexed": true,
          "internalType": "address",
          "name": "spender",
          "type": "address"
        },
        {
          "indexed": false,
          "internalType": "uint256",
          "name": "value",
          "type": "uint256"
        }
      ],
      "name": "Approval",
      "type": "event"
    },
    {
      "anonymous": false,
      "inputs": [
        {
          "indexed": true,
          "internalType": "address",
          "name": "producer",
          "type": "address"
        },
        {
          "indexed": false,
          "internalType": "uint256",
          "name": "amount",
          "type": "uint256"
        },
        {
          "indexed": false,
          "internalType": "string",
          "name": "deviceId",
          "type": "string"
        },
        {
          "indexed": false,
          "internalType": "bytes32",
          "name": "hcsTopicId",
          "type": "bytes32"
        }
      ],
      "name": "EnergyTokenized",
      "type": "event"
    },
    {
      "anonymous": false,
      "inputs": [
        {
          "indexed": true,
          "internalType": "address",
          "name": "minter",
          "type": "address"
        }
      ],
      "name": "MinterAuthorized",
      "type": "event"
    },
    {
      "anonymous": false,
      "inputs": [
        {
          "indexed": true,
          "internalType": "address",
          "name": "minter",
          "type": "address"
        }
      ],
      "name": "MinterRevoked",
      "type": "event"
    },
    {
      "anonymous": false,
      "inputs": [
        {
          "indexed": true,
          "internalType": "address",
          "name": "previousOwner",
          "type": "address"
        },
        {
          "indexed": true,
          "internalType": "address",
          "name": "newOwner",
          "type": "address"
        }
      ],
      "name": "OwnershipTransferred",
      "type": "event"
    },
    {
      "anonymous": false,
      "inputs": [
        {
          "indexed": true,
          "internalType": "address",
          "name": "from",
          "type": "address"
        },
        {
          "indexed": true,
          "internalType": "address",
          "name": "to",
          "type": "address"
        },
        {
          "indexed": false,
          "internalType": "uint256",
          "name": "value",
          "type": "uint256"
        }
      ],
      "name": "Transfer",
      "type": "event"
    },
    {
      "inputs": [
        {
          "internalType": "address",
          "name": "ownerAddr",
          "type": "address"
        },
        {
          "internalType": "address",
          "name": "spender",
          "type": "address"
        }
      ],
      "name": "allowance",
      "outputs": [
        {
          "internalType": "uint256",
          "name": "",
          "type": "uint256"
        }
      ],
      "stateMutability": "view",
      "type": "function"
    },
    {
      "inputs": [
        {
          "internalType": "address",
          "name": "spender",
          "type": "address"
        },
        {
          "internalType": "uint256",
          "name": "amount",
          "type": "uint256"
        }
      ],
      "name": "approve",
      "outputs": [
        {
          "internalType": "bool",
          "name": "",
          "type": "bool"
        }
      ],
      "stateMutability": "nonpayable",
      "type": "function"
    },
    {
      "inputs": [
        {
          "internalType": "address",
          "name": "minter",
          "type": "address"
        }
      ],
      "name": "authorizeMinter",
      "outputs": [],
      "stateMutability": "nonpayable",
      "type": "function"
    },
    {
      "inputs": [
        {
          "internalType": "address",
          "name": "",
          "type": "address"
        }
      ],
      "name": "authorizedMinters",
      "outputs": [
        {
          "internalType": "bool",
          "name": "",
          "type": "bool"
        }
      ],
      "stateMutability": "view",
      "type": "function"
    },
    {
      "inputs": [
        {
          "internalType": "address",
          "name": "account",
          "type": "address"
        }
      ],
      "name": "balanceOf",
      "outputs": [
        {
          "internalType": "uint256",
          "name": "",
          "type": "uint256"
        }
      ],
      "stateMutability": "view",
      "type": "function"
    },
    {
      "inputs": [],
      "name": "decimals",
      "outputs": [
        {
          "internalType": "uint8",
          "name": "",
          "type": "uint8"
        }
      ],
      "stateMutability": "view",
      "type": "function"
    },
    {
      "inputs": [
        {
          "internalType": "address",
          "name": "user",
          "type": "address"
        }
      ],
      "name": "getUserEnergyRecords",
      "outputs": [
        {
          "components": [
            {
              "internalType": "uint256",
              "name": "timestamp",
              "type": "uint256"
            },
            {
              "internalType": "uint256",
              "name": "kWhAmount",
              "type": "uint256"
            },
            {
              "internalType": "string",
              "name": "deviceId",
              "type": "string"
            },
            {
              "internalType": "bytes32",
              "name": "hcsTopicId",
              "type": "bytes32"
            }
          ],
          "internalType": "struct SunGridEnergyToken.EnergyRecord[]",
          "name": "",
          "type": "tuple[]"
        }
      ],
      "stateMutability": "view",
      "type": "function"
    },
    {
      "inputs": [
        {
          "internalType": "address",
          "name": "producer",
          "type": "address"
        },
        {
          "internalType": "uint256",
          "name": "kWhAmount",
          "type": "uint256"
        },
        {
          "internalType": "string",
          "name": "deviceId",
          "type": "string"
        },
        {
          "internalType": "bytes32",
          "name": "hcsTopicId",
          "type": "bytes32"
        }
      ],
      "name": "mintEnergy",
      "outputs": [
        {
          "internalType": "uint256",
          "name": "",
          "type": "uint256"
        }
      ],
      "stateMutability": "nonpayable",
      "type": "function"
    },
    {
      "inputs": [],
      "name": "name",
      "outputs": [
        {
          "internalType": "string",
          "name": "",
          "type": "string"
        }
      ],
      "stateMutability": "view",
      "type": "function"
    },
    {
      "inputs": [],
      "name": "owner",
      "outputs": [
        {
          "internalType": "address",
          "name": "",
          "type": "address"
        }
      ],
      "stateMutability": "view",
      "type": "function"
    },
    {
      "inputs": [
        {
          "internalType": "address",
          "name": "minter",
          "type": "address"
        }
      ],
      "name": "revokeMinter",
      "outputs": [],
      "stateMutability": "nonpayable",
      "type": "function"
    },
    {
      "inputs": [],
      "name": "symbol",
      "outputs": [
        {
          "internalType": "string",
          "name": "",
          "type": "string"
        }
      ],
      "stateMutability": "view",
      "type": "function"
    },
    {
      "inputs": [],
      "name": "totalSupply",
      "outputs": [
        {
          "internalType": "uint256",
          "name": "",
          "type": "uint256"
        }
      ],
      "stateMutability": "view",
      "type": "function"
    },
    {
      "inputs": [
        {
          "internalType": "address",
          "name": "to",
          "type": "address"
        },
        {
          "internalType": "uint256",
          "name": "amount",
          "type": "uint256"
        }
      ],
      "name": "transfer",
      "outputs": [
        {
          "internalType": "bool",
          "name": "",
          "type": "bool"
        }
      ],
      "stateMutability": "nonpayable",
      "type": "function"
    },
    {
      "inputs": [
        {
          "internalType": "address",
          "name": "from",
          "type": "address"
        },
        {
          "internalType": "address",
          "name": "to",
          "type": "address"
        },
        {
          "internalType": "uint256",
          "name": "amount",
          "type": "uint256"
        }
      ],
      "name": "transferFrom",
      "outputs": [
        {
          "internalType": "bool",
          "name": "",
          "type": "bool"
        }
      ],
      "stateMutability": "nonpayable",
      "type": "function"
    },
    {
      "inputs": [
        {
          "internalType": "address",
          "name": "newOwner",
          "type": "address"
        }
      ],
      "name": "transferOwnership",
      "outputs": [],
      "stateMutability": "nonpayable",
      "type": "function"
    },
    {
      "inputs": [
        {
          "internalType": "address",
          "name": "",
          "type": "address"
        },
        {
          "internalType": "uint256",
          "name": "",
          "type": "uint256"
        }
      ],
      "name": "userEnergyRecords",
      "outputs": [
        {
          "internalType": "uint256",
          "name": "timestamp",
          "type": "uint256"
        },
        {
          "internalType": "uint256",
          "name": "kWhAmount",
          "type": "uint256"
        },
        {
          "internalType": "string",
          "name": "deviceId",
          "type": "string"
        },
        {
          "internalType": "bytes32",
          "name": "hcsTopicId",
          "type": "bytes32"
        }
      ],
      "stateMutability": "view",
      "type": "function"
    }
  ],
  "bytecode": "0x6080806040523461006857600380546001600160a01b031916339081179091556000818152600460205260408120805460ff191660011790557f8be0079c531659141344cd1fd0a4f28419497f9722a3daafe3b4186f6b6457e08180a3611054908161006e8239f35b600080fdfe6080806040526004908136101561001557600080fd5b60003560e01c90816306fdde0314610b3857508063095ea7b314610b125780630c98483214610a9e57806318160ddd14610a8057806323b872dd146109d0578063313ce567146109b45780635836aec4146109285780635d421359146107d35780636f2caee21461036757806370a082311461032d5780638da5cb5b1461030457806395d89b41146102bc578063a9059cbb1461028b578063aa2fe91b1461024d578063cfbd4885146101dc578063dd62ed3e1461018b5763f2fde38b146100dc57600080fd5b34610186576020366003190112610186576100f5610c3b565b6003546001600160a01b038082169261010f338514610d79565b1692831561014e57506001600160a01b03191682176003557f8be0079c531659141344cd1fd0a4f28419497f9722a3daafe3b4186f6b6457e0600080a3005b60649060206040519162461bcd60e51b8352820152601160248201527024b73b30b634b2103732bb9037bbb732b960791b6044820152fd5b600080fd5b34610186576040366003190112610186576101a4610c3b565b6101ac610c51565b9060018060a01b038091166000526002602052604060002091166000526020526020604060002054604051908152f35b5034610186576020366003190112610186576101f6610c3b565b6003546001600160a01b0391906102109083163314610d79565b169081600052602052604060002060ff1981541690557f44f4322f8daa225d5f4877ad0f7d3dfba248a774396f3ca99405ed40a044fe81600080a2005b5034610186576020366003190112610186576001600160a01b0361026f610c3b565b16600052602052602060ff604060002054166040519015158152f35b34610186576040366003190112610186576102b16102a7610c3b565b6024359033610de2565b602060405160018152f35b34610186576000366003190112610186576103006040516102dc81610bbd565b600381526214d15560ea1b6020820152604051918291602083526020830190610bfb565b0390f35b34610186576000366003190112610186576003546040516001600160a01b039091168152602090f35b34610186576020366003190112610186576001600160a01b0361034e610c3b565b1660005260016020526020604060002054604051908152f35b503461018657608036600319011261018657610381610c3b565b6044359067ffffffffffffffff90818311610186573660238401121561018657828401358281116107be57604051906103c4601f8201601f191660200183610bd9565b80825260249436868383010111610186578160009287602093018386013783010152336000528460205260ff6040600020541615610783576001600160a01b0382161561074d5783351561070a57670de0b6b3a76400009284358085020484036106f65761043784863502600054610db2565b60005560018060a01b0383166000526001602052604060002061045e858735028254610db2565b905560018060a01b03831660005260056020526040600020906040519061048482610b8b565b42825260208201928735845260408301908582526064356060850152805490680100000000000000008210156106e257906104c491600182018155610c67565b9490946106cf5783518555516001850155519788519182116106bb57506104ee6002840154610c99565b97601f8911610674575b602098508890601f83116001146105de577fffd38836827f7153eee4f19eb2d189becde73948d48c3c4a36d4f285a9a37d199593836105b296946003946060946000926105d3575b50508160011b9160001990861b1c19161760028501555b01519101556040518635860281526001600160a01b038516906000907fddf252ad1be2c89b69c2b068fc378daa952ba7f163c4a11628f55a4df523b3ef908a90a3604051918291873583526060898401526060830190610bfb565b60643560408301526001600160a01b03909416930390a26040519135028152f35b015190503880610540565b90601f19831691600286016000528a6000209260005b81811061065d5750846003946060947fffd38836827f7153eee4f19eb2d189becde73948d48c3c4a36d4f285a9a37d199a98946105b29a9860019510610645575b505050811b016002850155610557565b015160001983881b60f8161c19169055388080610635565b92938c6001819287860151815501950193016105f4565b600284016000526020600020601f830160051c8101602084106106b4575b601f8b0160051c820181106106a85750506104f8565b60008155600101610692565b5080610692565b60418891634e487b7160e01b600052526000fd5b8860008b634e487b7160e01b8252526000fd5b8960418c634e487b7160e01b600052526000fd5b84601187634e487b7160e01b600052526000fd5b60405162461bcd60e51b81526020818701526017818601527f416d6f756e74206d75737420626520706f7369746976650000000000000000006044820152606490fd5b60405162461bcd60e51b81526020818701526010818601526f24b73b30b634b210383937b23ab1b2b960811b6044820152606490fd5b60405162461bcd60e51b8152602081870152601581860152742737ba1030baba3437b934bd32b21036b4b73a32b960591b6044820152606490fd5b604185634e487b7160e01b6000525260246000fd5b50346101865760209081600319360112610186576001600160a01b036107f7610c3b565b16600052600582526040600020805467ffffffffffffffff811161091357604051939261082a600583901b850186610bd9565b8185528385018093600052846000206000915b8483106108c757604080518881528951818a01819052600092600582901b83018101918a918c9085015b8287106108745785850386f35b909192938280600192603f198982030185528751908151815282820151838201526108ad60408301516080806040850152830190610bfb565b916060809101519101529601920196019592919092610867565b838760019260409a999a516108db81610b8b565b8554815284860154838201526108f360028701610cd3565b60408201526003860154606082015281520192019201919096959661083d565b604183634e487b7160e01b6000525260246000fd5b3461018657604036600319011261018657610941610c3b565b6001600160a01b031660009081526005602052604090208054602435908110156101865761096e91610c67565b5080546001820154916109aa600361098860028401610cd3565b9201549160405194859485526020850152608060408501526080840190610bfb565b9060608301520390f35b3461018657600036600319011261018657602060405160128152f35b5034610186576060366003190112610186576109ea610c3b565b6109f2610c51565b916044359260018060a01b038316600052600260205260406000203360005260205260406000205491848310610a43575092610a3b91610a36826102b19686610de2565b610dd5565b903390610f33565b60649060206040519162461bcd60e51b83528201526016602482015275496e73756666696369656e7420616c6c6f77616e636560501b6044820152fd5b34610186576000366003190112610186576020600054604051908152f35b503461018657602036600319011261018657610ab8610c3b565b6003546001600160a01b039190610ad29083163314610d79565b1690816000526020526040600020600160ff198254161790557f83b05b6735acd4b85e3bded8e72c851d1a87718f81e3c8e6f0c9d9a2baa88e46600080a2005b34610186576040366003190112610186576102b1610b2e610c3b565b6024359033610f33565b346101865760003660031901126101865780610b5661030092610bbd565b601481527329bab723b934b21022b732b933bc902a37b5b2b760611b6020820152604051918291602083526020830190610bfb565b6080810190811067ffffffffffffffff821117610ba757604052565b634e487b7160e01b600052604160045260246000fd5b6040810190811067ffffffffffffffff821117610ba757604052565b90601f8019910116810190811067ffffffffffffffff821117610ba757604052565b919082519283825260005b848110610c27575050826000602080949584010152601f8019910116010190565b602081830181015184830182015201610c06565b600435906001600160a01b038216820361018657565b602435906001600160a01b038216820361018657565b8054821015610c835760005260206000209060021b0190600090565b634e487b7160e01b600052603260045260246000fd5b90600182811c92168015610cc9575b6020831014610cb357565b634e487b7160e01b600052602260045260246000fd5b91607f1691610ca8565b9060405191826000825492610ce784610c99565b908184526001948581169081600014610d565750600114610d13575b5050610d1192500383610bd9565b565b9093915060005260209081600020936000915b818310610d3e575050610d1193508201013880610d03565b85548884018501529485019487945091830191610d26565b915050610d1194506020925060ff191682840152151560051b8201013880610d03565b15610d8057565b60405162461bcd60e51b815260206004820152600a60248201526927b7363c9037bbb732b960b11b6044820152606490fd5b91908201809211610dbf57565b634e487b7160e01b600052601160045260246000fd5b91908203918211610dbf57565b6001600160a01b03908116918215610eee5716918215610ea9576000828152600160205281604082205410610e6d577fddf252ad1be2c89b69c2b068fc378daa952ba7f163c4a11628f55a4df523b3ef91604082856020945260018452818120610e4d848254610dd5565b90558681526001845220610e62828254610db2565b9055604051908152a3565b60405162461bcd60e51b8152602060048201526014602482015273496e73756666696369656e742062616c616e636560601b6044820152606490fd5b60405162461bcd60e51b815260206004820152601860248201527f5472616e7366657220746f207a65726f206164647265737300000000000000006044820152606490fd5b60405162461bcd60e51b815260206004820152601a60248201527f5472616e736665722066726f6d207a65726f20616464726573730000000000006044820152606490fd5b6001600160a01b03908116918215610fd95716918215610f945760207f8c5be1e5ebec7d5bd14f71427d1e84f3dd0314c0f7b2291e5b200ac8c7c3b925918360005260028252604060002085600052825280604060002055604051908152a3565b60405162461bcd60e51b815260206004820152601760248201527f417070726f766520746f207a65726f20616464726573730000000000000000006044820152606490fd5b60405162461bcd60e51b815260206004820152601960248201527f417070726f76652066726f6d207a65726f2061646472657373000000000000006044820152606490fdfea2646970667358221220fff69069ba023d406a8b6893014a586cacff5311caec9d6c484ab05dfb3d5f8c64736f6c63430008140033",
  "linkReferences": {},
  "deployedLinkReferences": {}
}